{
  "contractName": "AgentGenome",
  "abi": [
    {
      "inputs": [
        {
          "internalType": "address",
          "name": "initialOwner",
          "type": "address"
        }
      ],
      "stateMutability": "nonpayable",
      "type": "constructor"
    },
    {
      "anonymous": false,
      "inputs": [
        {
          "components": [
            {
              "internalType": "uint256",
              "name": "intelligence",
              "type": "uint256"
            },
            {
              "internalType": "uint256",
              "name": "creativity",
              "type": "uint256"
            },
            {
              "internalType": "uint256",
              "name": "efficiency",
              "type": "uint256"
            },
            {
              "internalType": "uint256",
              "name": "autonomy",
              "type": "uint256"
            },
            {
              "internalType": "uint256",
              "name": "specialization",
              "type": "uint256"
            }
          ],
          "indexed": false,
          "internalType": "struct AgentGenome.AgentAttributes",
          "name": "newAttributes",
          "type": "tuple"
        }
      ],
      "name": "AttributesUpdated",
      "type": "event"
    },
    {
      "anonymous": false,
      "inputs": [
        {
          "indexed": false,
          "internalType": "string",
          "name": "newDescription",
          "type": "string"
        }
      ],
      "name": "DescriptionUpdated",
      "type": "event"
    },
    {
      "anonymous": false,
      "inputs": [
        {
          "indexed": true,
          "internalType": "address",
          "name": "previousOwner",
          "type": "address"
        },
        {
          "indexed": true,
          "internalType": "address",
          "name": "newOwner",
          "type": "address"
        }
      ],
      "name": "OwnershipTransferred",
      "type": "event"
    },
    {
      "inputs": [],
      "name": "attributes",
      "outputs": [
        {
          "internalType": "uint256",
          "name": "intelligence",
          "type": "uint256"
        },
        {
          "internalType": "uint256",
          "name": "creativity",
          "type": "uint256"
        },
        {
          "internalType": "uint256",
          "name": "efficiency",
          "type": "uint256"
        },
        {
          "internalType": "uint256",
          "name": "autonomy",
          "type": "uint256"
        },
        {
          "internalType": "uint256",
          "name": "specialization",
          "type": "uint256"
        }
      ],
      "stateMutability": "view",
      "type": "function"
    },
    {
      "inputs": [],
      "name": "description",
      "outputs": [
        {
          "internalType": "string",
          "name": "",
          "type": "string"
        }
      ],
      "stateMutability": "view",
      "type": "function"
    },
    {
      "inputs": [],
      "name": "owner",
      "outputs": [
        {
          "internalType": "address",
          "name": "",
          "type": "address"
        }
      ],
      "stateMutability": "view",
      "type": "function"
    },
    {
      "inputs": [],
      "name": "renounceOwnership",
      "outputs": [],
      "stateMutability": "nonpayable",
      "type": "function"
    },
    {
      "inputs": [
        {
          "internalType": "address",
          "name": "newOwner",
          "type": "address"
        }
      ],
      "name": "transferOwnership",
      "outputs": [],
      "stateMutability": "nonpayable",
      "type": "function"
    },
    {
      "inputs": [
        {
          "internalType": "uint256",
          "name": "_intelligence",
          "type": "uint256"
        },
        {
          "internalType": "uint256",
          "name": "_creativity",
          "type": "uint256"
        },
        {
          "internalType": "uint256",
          "name": "_efficiency",
          "type": "uint256"
        },
        {
          "internalType": "uint256",
          "name": "_autonomy",
          "type": "uint256"
        },
        {
          "internalType": "uint256",
          "name": "_specialization",
          "type": "uint256"
        }
      ],
      "name": "updateAttributes",
      "outputs": [],
      "stateMutability": "nonpayable",
      "type": "function"
    },
    {
      "inputs": [
        {
          "internalType": "string",
          "name": "_description",
          "type": "string"
        }
      ],
      "name": "updateDescription",
      "outputs": [],
      "stateMutability": "nonpayable",
      "type": "function"
    },
    {
      "inputs": [],
      "name": "getAttributes",
      "outputs": [
        {
          "components": [
            {
              "internalType": "uint256",
              "name": "intelligence",
              "type": "uint256"
            },
            {
              "internalType": "uint256",
              "name": "creativity",
              "type": "uint256"
            },
            {
              "internalType": "uint256",
              "name": "efficiency",
              "type": "uint256"
            },
            {
              "internalType": "uint256",
              "name": "autonomy",
              "type": "uint256"
            },
            {
              "internalType": "uint256",
              "name": "specialization",
              "type": "uint256"
            }
          ],
          "internalType": "struct AgentGenome.AgentAttributes",
          "name": "",
          "type": "tuple"
        }
      ],
      "stateMutability": "view",
      "type": "function"
    },
    {
      "inputs": [],
      "name": "getDescription",
      "outputs": [
        {
          "internalType": "string",
          "name": "",
          "type": "string"
        }
      ],
      "stateMutability": "view",
      "type": "function"
    },
    {
      "inputs": [],
      "name": "getGenomeString",
      "outputs": [
        {
          "internalType": "string",
          "name": "",
          "type": "string"
        }
      ],
      "stateMutability": "view",
      "type": "function"
    }
  ],
  "bytecode": "0x608060405234801561000f575f80fd5b50604051610c11380380610c1183398101604081905261002e91610095565b61003733610046565b61004081610046565b506100c2565b5f80546001600160a01b038381166001600160a01b0319831681178455604051919092169283917f8be0079c531659141344cd1fd0a4f28419497f9722a3daafe3b4186f6b6457e09190a35050565b5f602082840312156100a5575f80fd5b81516001600160a01b03811681146100bb575f80fd5b9392505050565b610b42806100cf5f395ff3fe608060405234801561000f575f80fd5b506004361061009b575f3560e01c80638edfb796116100635780638edfb7961461013257806393e1ea4114610145578063e735b48a14610187578063f2fde38b1461019a578063fe56266a146101ad575f80fd5b8063152583de1461009f5780631a092541146100f1578063715018a6146101065780637284e416146101105780638da5cb5b14610118575b5f80fd5b6100a76101b5565b6040516100e891905f60a082019050825182526020830151602083015260408301516040830152606083015160608301526080830151608083015292915050565b60405180910390f35b6100f9610217565b6040516100e891906107e0565b61010e6102a7565b005b6100f96102ba565b5f546040516001600160a01b0390911681526020016100e8565b61010e610140366004610812565b610346565b60015460025460035460045460055461015f949392919085565b604080519586526020860194909452928401919091526060830152608082015260a0016100e8565b61010e61019536600461085d565b61047f565b61010e6101a8366004610908565b6104ce565b6100f9610547565b6101e26040518060a001604052805f81526020015f81526020015f81526020015f81526020015f81525090565b506040805160a08101825260015481526002546020820152600354918101919091526004546060820152600554608082015290565b60606006805461022690610935565b80601f016020809104026020016040519081016040528092919081815260200182805461025290610935565b801561029d5780601f106102745761010080835404028352916020019161029d565b820191905f5260205f20905b81548152906001019060200180831161028057829003601f168201915b5050505050905090565b6102af6105ae565b6102b85f610607565b565b600680546102c790610935565b80601f01602080910402602001604051908101604052809291908181526020018280546102f390610935565b801561033e5780601f106103155761010080835404028352916020019161033e565b820191905f5260205f20905b81548152906001019060200180831161032157829003601f168201915b505050505081565b61034e6105ae565b60648511158015610360575060648411155b801561036d575060648311155b801561037a575060648211155b8015610387575060648111155b6103eb5760405162461bcd60e51b815260206004820152602a60248201527f4174747269627574652076616c756573206d757374206265206265747765656e6044820152690203020616e64203130360b41b60648201526084015b60405180910390fd5b6040805160a0808201835287825260208083018890528284018790526060808401879052608093840186905260018a9055600289905560038890556004879055600586905584518a81529182018990529381018790529283018590529082018390527f05e8de924f7460a2ef5bbc705532e69ef3fe84d4afd434e064960f4d143d6db5910160405180910390a15050505050565b6104876105ae565b600661049382826109bb565b507fdbdc84bdf4319ffa157f81d25dd54211090e37ca6a9d0b90e2b8098aaceed135816040516104c391906107e0565b60405180910390a150565b6104d66105ae565b6001600160a01b03811661053b5760405162461bcd60e51b815260206004820152602660248201527f4f776e61626c653a206e6577206f776e657220697320746865207a65726f206160448201526564647265737360d01b60648201526084016103e2565b61054481610607565b50565b606061055660015f0154610656565b60025461056290610656565b60035461056e90610656565b60045461057a90610656565b60055461058690610656565b60405160200161059a959493929190610a77565b604051602081830303815290604052905090565b5f546001600160a01b031633146102b85760405162461bcd60e51b815260206004820181905260248201527f4f776e61626c653a2063616c6c6572206973206e6f7420746865206f776e657260448201526064016103e2565b5f80546001600160a01b038381166001600160a01b0319831681178455604051919092169283917f8be0079c531659141344cd1fd0a4f28419497f9722a3daafe3b4186f6b6457e09190a35050565b60605f610662836106e6565b60010190505f8167ffffffffffffffff81111561068157610681610849565b6040519080825280601f01601f1916602001820160405280156106ab576020820181803683370190505b5090508181016020015b5f19016f181899199a1a9b1b9c1cb0b131b232b360811b600a86061a8153600a85049450846106b557509392505050565b5f8072184f03e93ff9f4daa797ed6e38ed64bf6a1f0160401b83106107245772184f03e93ff9f4daa797ed6e38ed64bf6a1f0160401b830492506040015b6d04ee2d6d415b85acef81000000008310610750576d04ee2d6d415b85acef8100000000830492506020015b662386f26fc10000831061076e57662386f26fc10000830492506010015b6305f5e1008310610786576305f5e100830492506008015b612710831061079a57612710830492506004015b606483106107ac576064830492506002015b600a83106107b8576001015b92915050565b5f5b838110156107d85781810151838201526020016107c0565b50505f910152565b602081525f82518060208401526107fe8160408501602087016107be565b601f01601f19169190910160400192915050565b5f805f805f60a08688031215610826575f80fd5b505083359560208501359550604085013594606081013594506080013592509050565b634e487b7160e01b5f52604160045260245ffd5b5f6020828403121561086d575f80fd5b813567ffffffffffffffff80821115610884575f80fd5b818401915084601f830112610897575f80fd5b8135818111156108a9576108a9610849565b604051601f8201601f19908116603f011681019083821181831017156108d1576108d1610849565b816040528281528760208487010111156108e9575f80fd5b826020860160208301375f928101602001929092525095945050505050565b5f60208284031215610918575f80fd5b81356001600160a01b038116811461092e575f80fd5b9392505050565b600181811c9082168061094957607f821691505b60208210810361096757634e487b7160e01b5f52602260045260245ffd5b50919050565b601f8211156109b6575f81815260208120601f850160051c810160208610156109935750805b601f850160051c820191505b818110156109b25782815560010161099f565b5050505b505050565b815167ffffffffffffffff8111156109d5576109d5610849565b6109e9816109e38454610935565b8461096d565b602080601f831160018114610a1c575f8415610a055750858301515b5f19600386901b1c1916600185901b1785556109b2565b5f85815260208120601f198616915b82811015610a4a57888601518255948401946001909101908401610a2b565b5085821015610a6757878501515f19600388901b60f8161c191681555b5050505050600190811b01905550565b5f8651610a88818460208b016107be565b8083019050602d60f81b8082528751610aa8816001850160208c016107be565b600192019182018190528651610ac5816002850160208b016107be565b600292019182018190528551610ae2816003850160208a016107be565b60039201918201528351610afd8160048401602088016107be565b0160040197965050505050505056fea2646970667358221220cf758e560d83f340e6855c90b5a429955bbf341f36e8bd1dc7f15f347b9a49a264736f6c63430008140033",
  "immutableReferences": {},
  "source": "// SPDX-License-Identifier: MIT\r\npragma solidity ^0.8.20;\r\n\r\nimport \"@openzeppelin/contracts/access/Ownable.sol\";\r\nimport \"@openzeppelin/contracts/utils/Strings.sol\";\r\n\r\ncontract AgentGenome is Ownable {\r\n    using Strings for uint256;\r\n\r\n    struct AgentAttributes {\r\n        uint256 intelligence;\r\n        uint256 creativity;\r\n        uint256 efficiency;\r\n        uint256 autonomy;\r\n        uint256 specialization;\r\n    }\r\n\r\n    AgentAttributes public attributes;\r\n    string public description;\r\n\r\n    event AttributesUpdated(AgentAttributes newAttributes);\r\n    event DescriptionUpdated(string newDescription);\r\n\r\n    constructor(address initialOwner) {\r\n        _transferOwnership(initialOwner);\r\n        // Constructor logic here\r\n    }\r\n\r\n    function updateAttributes(\r\n        uint256 _intelligence,\r\n        uint256 _creativity,\r\n        uint256 _efficiency,\r\n        uint256 _autonomy,\r\n        uint256 _specialization\r\n    ) external onlyOwner {\r\n        require(_intelligence <= 100 && _creativity <= 100 && _efficiency <= 100 && _autonomy <= 100 && _specialization <= 100, \"Attribute values must be between 0 and 100\");\r\n        \r\n        attributes = AgentAttributes(\r\n            _intelligence,\r\n            _creativity,\r\n            _efficiency,\r\n            _autonomy,\r\n            _specialization\r\n        );\r\n        emit AttributesUpdated(attributes);\r\n    }\r\n\r\n    function updateDescription(string memory _description) external onlyOwner {\r\n        description = _description;\r\n        emit DescriptionUpdated(_description);\r\n    }\r\n\r\n    function getAttributes() external view returns (AgentAttributes memory) {\r\n        return attributes;\r\n    }\r\n\r\n    function getDescription() external view returns (string memory) {\r\n        return description;\r\n    }\r\n\r\n    function getGenomeString() public view returns (string memory) {\r\n        return string(abi.encodePacked(\r\n            attributes.intelligence.toString(),\r\n            \"-\",\r\n            attributes.creativity.toString(),\r\n            \"-\",\r\n            attributes.efficiency.toString(),\r\n            \"-\",\r\n            attributes.autonomy.toString(),\r\n            \"-\",\r\n            attributes.specialization.toString()\r\n        ));\r\n    }\r\n}",
  "sourcePath": "E:\\AI Zona\\AI Apps\\aizona\\aizona\\smart-contracts\\contracts\\AgentGenome.sol",
  "compiler": {
    "name": "solc",
    "version": "0.8.20+commit.a1b79de6.Emscripten.clang"
  },
  "schemaVersion": "3.4.16",
  "updatedAt": "2024-08-20T19:44:33.038Z",
  "devdoc": {
    "kind": "dev",
    "methods": {
      "owner()": {
        "details": "Returns the address of the current owner."
      },
      "renounceOwnership()": {
        "details": "Leaves the contract without owner. It will not be possible to call `onlyOwner` functions. Can only be called by the current owner. NOTE: Renouncing ownership will leave the contract without an owner, thereby disabling any functionality that is only available to the owner."
      },
      "transferOwnership(address)": {
        "details": "Transfers ownership of the contract to a new account (`newOwner`). Can only be called by the current owner."
      }
    },
    "version": 1
  },
  "userdoc": {
    "kind": "user",
    "methods": {},
    "version": 1
  }
}