{
  "contractName": "AIZFaucet",
  "abi": [
    {
      "inputs": [
        {
          "internalType": "contract IERC20",
          "name": "_token",
          "type": "address"
        },
        {
          "internalType": "uint256",
          "name": "_amount",
          "type": "uint256"
        }
      ],
      "stateMutability": "nonpayable",
      "type": "constructor"
    },
    {
      "inputs": [],
      "name": "amount",
      "outputs": [
        {
          "internalType": "uint256",
          "name": "",
          "type": "uint256"
        }
      ],
      "stateMutability": "view",
      "type": "function"
    },
    {
      "inputs": [
        {
          "internalType": "address",
          "name": "",
          "type": "address"
        }
      ],
      "name": "lastAccessTime",
      "outputs": [
        {
          "internalType": "uint256",
          "name": "",
          "type": "uint256"
        }
      ],
      "stateMutability": "view",
      "type": "function"
    },
    {
      "inputs": [],
      "name": "token",
      "outputs": [
        {
          "internalType": "contract IERC20",
          "name": "",
          "type": "address"
        }
      ],
      "stateMutability": "view",
      "type": "function"
    },
    {
      "inputs": [],
      "name": "requestTokens",
      "outputs": [],
      "stateMutability": "nonpayable",
      "type": "function"
    }
  ],
  "bytecode": "0x608060405234801561000f575f80fd5b506040516103c93803806103c983398101604081905261002e91610056565b5f80546001600160a01b0319166001600160a01b03939093169290921790915560015561008d565b5f8060408385031215610067575f80fd5b82516001600160a01b038116811461007d575f80fd5b6020939093015192949293505050565b61032f8061009a5f395ff3fe608060405234801561000f575f80fd5b506004361061004a575f3560e01c8063359cf2b71461004e578063844b829a14610058578063aa8c217c1461008a578063fc0c546a14610093575b5f80fd5b6100566100bd565b005b610077610066366004610271565b60026020525f908152604090205481565b6040519081526020015b60405180910390f35b61007760015481565b5f546100a5906001600160a01b031681565b6040516001600160a01b039091168152602001610081565b335f9081526002602052604090205462015180906100db904261029e565b101561012e5760405162461bcd60e51b815260206004820181905260248201527f5761697420323468206265666f72652072657175657374696e6720616761696e60448201526064015b60405180910390fd5b6001545f546040516370a0823160e01b81523060048201526001600160a01b03909116906370a0823190602401602060405180830381865afa158015610176573d5f803e3d5ffd5b505050506040513d601f19601f8201168201806040525081019061019a91906102c3565b10156101e85760405162461bcd60e51b815260206004820152601e60248201527f496e73756666696369656e742062616c616e636520696e2066617563657400006044820152606401610125565b335f818152600260205260408082204290559054600154915163a9059cbb60e01b8152600481019390935260248301919091526001600160a01b03169063a9059cbb906044016020604051808303815f875af115801561024a573d5f803e3d5ffd5b505050506040513d601f19601f8201168201806040525081019061026e91906102da565b50565b5f60208284031215610281575f80fd5b81356001600160a01b0381168114610297575f80fd5b9392505050565b818103818111156102bd57634e487b7160e01b5f52601160045260245ffd5b92915050565b5f602082840312156102d3575f80fd5b5051919050565b5f602082840312156102ea575f80fd5b81518015158114610297575f80fdfea2646970667358221220412bf0b59887914cd4920d1401571123795121d19b738b029087011b033513c464736f6c63430008140033",
  "immutableReferences": {},
  "source": "// SPDX-License-Identifier: MIT\r\npragma solidity ^0.8.0;\r\n\r\nimport \"@openzeppelin/contracts/token/ERC20/IERC20.sol\";\r\n\r\ncontract AIZFaucet {\r\n    IERC20 public token;\r\n    uint256 public amount;\r\n    mapping(address => uint256) public lastAccessTime;\r\n\r\n    constructor(IERC20 _token, uint256 _amount) {\r\n        token = _token;\r\n        amount = _amount;\r\n    }\r\n\r\n    function requestTokens() external {\r\n        require(block.timestamp - lastAccessTime[msg.sender] >= 1 days, \"Wait 24h before requesting again\");\r\n        require(token.balanceOf(address(this)) >= amount, \"Insufficient balance in faucet\");\r\n        \r\n        lastAccessTime[msg.sender] = block.timestamp;\r\n        token.transfer(msg.sender, amount);\r\n    }\r\n}",
  "sourcePath": "E:\\AI Zona\\AI Apps\\aizona\\aizona\\smart-contracts\\contracts\\AIZFaucet.sol",
  "compiler": {
    "name": "solc",
    "version": "0.8.20+commit.a1b79de6.Emscripten.clang"
  },
  "schemaVersion": "3.4.16",
  "updatedAt": "2024-08-20T19:44:33.027Z",
  "devdoc": {
    "kind": "dev",
    "methods": {},
    "version": 1
  },
  "userdoc": {
    "kind": "user",
    "methods": {},
    "version": 1
  }
}