{
  "contractName": "AIZStaking",
  "abi": [
    {
      "inputs": [
        {
          "internalType": "address",
          "name": "initialOwner",
          "type": "address"
        },
        {
          "internalType": "contract IERC20",
          "name": "_stakingToken",
          "type": "address"
        }
      ],
      "stateMutability": "nonpayable",
      "type": "constructor"
    },
    {
      "anonymous": false,
      "inputs": [
        {
          "indexed": true,
          "internalType": "address",
          "name": "previousOwner",
          "type": "address"
        },
        {
          "indexed": true,
          "internalType": "address",
          "name": "newOwner",
          "type": "address"
        }
      ],
      "name": "OwnershipTransferred",
      "type": "event"
    },
    {
      "anonymous": false,
      "inputs": [
        {
          "indexed": true,
          "internalType": "address",
          "name": "user",
          "type": "address"
        },
        {
          "indexed": false,
          "internalType": "uint256",
          "name": "reward",
          "type": "uint256"
        }
      ],
      "name": "RewardPaid",
      "type": "event"
    },
    {
      "anonymous": false,
      "inputs": [
        {
          "indexed": false,
          "internalType": "uint256",
          "name": "newRate",
          "type": "uint256"
        }
      ],
      "name": "RewardRateUpdated",
      "type": "event"
    },
    {
      "anonymous": false,
      "inputs": [
        {
          "indexed": true,
          "internalType": "address",
          "name": "user",
          "type": "address"
        },
        {
          "indexed": false,
          "internalType": "uint256",
          "name": "amount",
          "type": "uint256"
        }
      ],
      "name": "Staked",
      "type": "event"
    },
    {
      "anonymous": false,
      "inputs": [
        {
          "indexed": true,
          "internalType": "address",
          "name": "user",
          "type": "address"
        },
        {
          "indexed": false,
          "internalType": "uint256",
          "name": "amount",
          "type": "uint256"
        }
      ],
      "name": "Withdrawn",
      "type": "event"
    },
    {
      "inputs": [],
      "name": "lastUpdateTime",
      "outputs": [
        {
          "internalType": "uint256",
          "name": "",
          "type": "uint256"
        }
      ],
      "stateMutability": "view",
      "type": "function"
    },
    {
      "inputs": [],
      "name": "owner",
      "outputs": [
        {
          "internalType": "address",
          "name": "",
          "type": "address"
        }
      ],
      "stateMutability": "view",
      "type": "function"
    },
    {
      "inputs": [],
      "name": "renounceOwnership",
      "outputs": [],
      "stateMutability": "nonpayable",
      "type": "function"
    },
    {
      "inputs": [],
      "name": "rewardPerTokenStored",
      "outputs": [
        {
          "internalType": "uint256",
          "name": "",
          "type": "uint256"
        }
      ],
      "stateMutability": "view",
      "type": "function"
    },
    {
      "inputs": [],
      "name": "rewardRate",
      "outputs": [
        {
          "internalType": "uint256",
          "name": "",
          "type": "uint256"
        }
      ],
      "stateMutability": "view",
      "type": "function"
    },
    {
      "inputs": [
        {
          "internalType": "address",
          "name": "",
          "type": "address"
        }
      ],
      "name": "rewards",
      "outputs": [
        {
          "internalType": "uint256",
          "name": "",
          "type": "uint256"
        }
      ],
      "stateMutability": "view",
      "type": "function"
    },
    {
      "inputs": [
        {
          "internalType": "address",
          "name": "",
          "type": "address"
        }
      ],
      "name": "stakedBalance",
      "outputs": [
        {
          "internalType": "uint256",
          "name": "",
          "type": "uint256"
        }
      ],
      "stateMutability": "view",
      "type": "function"
    },
    {
      "inputs": [
        {
          "internalType": "address",
          "name": "",
          "type": "address"
        }
      ],
      "name": "stakingTime",
      "outputs": [
        {
          "internalType": "uint256",
          "name": "",
          "type": "uint256"
        }
      ],
      "stateMutability": "view",
      "type": "function"
    },
    {
      "inputs": [],
      "name": "stakingToken",
      "outputs": [
        {
          "internalType": "contract IERC20",
          "name": "",
          "type": "address"
        }
      ],
      "stateMutability": "view",
      "type": "function"
    },
    {
      "inputs": [
        {
          "internalType": "address",
          "name": "newOwner",
          "type": "address"
        }
      ],
      "name": "transferOwnership",
      "outputs": [],
      "stateMutability": "nonpayable",
      "type": "function"
    },
    {
      "inputs": [
        {
          "internalType": "address",
          "name": "",
          "type": "address"
        }
      ],
      "name": "userRewardPerTokenPaid",
      "outputs": [
        {
          "internalType": "uint256",
          "name": "",
          "type": "uint256"
        }
      ],
      "stateMutability": "view",
      "type": "function"
    },
    {
      "inputs": [],
      "name": "totalSupply",
      "outputs": [
        {
          "internalType": "uint256",
          "name": "",
          "type": "uint256"
        }
      ],
      "stateMutability": "view",
      "type": "function"
    },
    {
      "inputs": [
        {
          "internalType": "address",
          "name": "account",
          "type": "address"
        }
      ],
      "name": "balanceOf",
      "outputs": [
        {
          "internalType": "uint256",
          "name": "",
          "type": "uint256"
        }
      ],
      "stateMutability": "view",
      "type": "function"
    },
    {
      "inputs": [],
      "name": "rewardPerToken",
      "outputs": [
        {
          "internalType": "uint256",
          "name": "",
          "type": "uint256"
        }
      ],
      "stateMutability": "view",
      "type": "function"
    },
    {
      "inputs": [
        {
          "internalType": "address",
          "name": "account",
          "type": "address"
        }
      ],
      "name": "earned",
      "outputs": [
        {
          "internalType": "uint256",
          "name": "",
          "type": "uint256"
        }
      ],
      "stateMutability": "view",
      "type": "function"
    },
    {
      "inputs": [
        {
          "internalType": "uint256",
          "name": "amount",
          "type": "uint256"
        }
      ],
      "name": "stake",
      "outputs": [],
      "stateMutability": "nonpayable",
      "type": "function"
    },
    {
      "inputs": [
        {
          "internalType": "uint256",
          "name": "amount",
          "type": "uint256"
        }
      ],
      "name": "withdraw",
      "outputs": [],
      "stateMutability": "nonpayable",
      "type": "function"
    },
    {
      "inputs": [],
      "name": "getReward",
      "outputs": [],
      "stateMutability": "nonpayable",
      "type": "function"
    },
    {
      "inputs": [
        {
          "internalType": "uint256",
          "name": "_rewardRate",
          "type": "uint256"
        }
      ],
      "name": "setRewardRate",
      "outputs": [],
      "stateMutability": "nonpayable",
      "type": "function"
    },
    {
      "inputs": [],
      "name": "emergencyWithdraw",
      "outputs": [],
      "stateMutability": "nonpayable",
      "type": "function"
    }
  ],
  "bytecode": "0x60a060405234801561000f575f80fd5b50604051610f3a380380610f3a83398101604081905261002e916100bc565b61003733610056565b6001805561004482610056565b6001600160a01b0316608052506100f4565b5f80546001600160a01b038381166001600160a01b0319831681178455604051919092169283917f8be0079c531659141344cd1fd0a4f28419497f9722a3daafe3b4186f6b6457e09190a35050565b6001600160a01b03811681146100b9575f80fd5b50565b5f80604083850312156100cd575f80fd5b82516100d8816100a5565b60208401519092506100e9816100a5565b809150509250929050565b608051610e126101285f395f8181610207015281816104b101528181610659015281816108b70152610a9d0152610e125ff3fe608060405234801561000f575f80fd5b5060043610610126575f3560e01c80637b0a47ee116100a9578063c8f33c911161006e578063c8f33c911461029f578063cd3daf9d146102a8578063db2e21bc146102b0578063df136d65146102b8578063f2fde38b146102c1575f80fd5b80637b0a47ee146102415780638b8763471461024a5780638da5cb5b146102695780639e447fc614610279578063a694fc3a1461028c575f80fd5b8063583d42fd116100ef578063583d42fd1461019457806360217267146101b357806370a08231146101d2578063715018a6146101fa57806372f702f314610202575f80fd5b80628cc2621461012a5780630700037d1461015057806318160ddd1461016f5780632e1a7d4d146101775780633d18b9121461018c575b5f80fd5b61013d610138366004610d09565b6102d4565b6040519081526020015b60405180910390f35b61013d61015e366004610d09565b60066020525f908152604090205481565b60095461013d565b61018a610185366004610d36565b61034f565b005b61018a6105b2565b61013d6101a2366004610d09565b60086020525f908152604090205481565b61013d6101c1366004610d09565b60076020525f908152604090205481565b61013d6101e0366004610d09565b6001600160a01b03165f9081526007602052604090205490565b61018a61074b565b6102297f000000000000000000000000000000000000000000000000000000000000000081565b6040516001600160a01b039091168152602001610147565b61013d60025481565b61013d610258366004610d09565b60056020525f908152604090205481565b5f546001600160a01b0316610229565b61018a610287366004610d36565b61075c565b61018a61029a366004610d36565b61079f565b61013d60035481565b61013d610997565b61018a6109f9565b61013d60045481565b61018a6102cf366004610d09565b610b92565b6001600160a01b0381165f908152600660209081526040808320546005909252822054670de0b6b3a764000090610309610997565b6103139190610d61565b6001600160a01b0385165f908152600760205260409020546103359190610d74565b61033f9190610d8b565b6103499190610daa565b92915050565b610357610c08565b33610360610997565b600455426003556001600160a01b038116156103aa5761037f816102d4565b6001600160a01b0382165f908152600660209081526040808320939093556004546005909152919020555b5f82116103fe5760405162461bcd60e51b815260206004820152601860248201527f43616e6e6f74207769746864726177203020746f6b656e73000000000000000060448201526064015b60405180910390fd5b335f9081526007602052604090205482111561045c5760405162461bcd60e51b815260206004820152601860248201527f4e6f7420656e6f75676820746f6b656e73207374616b6564000000000000000060448201526064016103f5565b8160095f82825461046d9190610d61565b9091555050335f9081526007602052604081208054849290610490908490610d61565b909155505060405163a9059cbb60e01b8152336004820152602481018390527f00000000000000000000000000000000000000000000000000000000000000006001600160a01b03169063a9059cbb906044016020604051808303815f875af11580156104ff573d5f803e3d5ffd5b505050506040513d601f19601f820116820180604052508101906105239190610dbd565b61056f5760405162461bcd60e51b815260206004820152601860248201527f5769746864726177207472616e73666572206661696c6564000000000000000060448201526064016103f5565b60405182815233907f7084f5476618d8e60b11ef0d7d3f06914655adb8793e28ff7f018d4c76d505d5906020015b60405180910390a2506105af60018055565b50565b6105ba610c08565b336105c3610997565b600455426003556001600160a01b0381161561060d576105e2816102d4565b6001600160a01b0382165f908152600660209081526040808320939093556004546005909152919020555b335f90815260066020526040902054801561073e57335f81815260066020526040808220919091555163a9059cbb60e01b81526004810191909152602481018290526001600160a01b037f0000000000000000000000000000000000000000000000000000000000000000169063a9059cbb906044016020604051808303815f875af115801561069f573d5f803e3d5ffd5b505050506040513d601f19601f820116820180604052508101906106c39190610dbd565b6107085760405162461bcd60e51b815260206004820152601660248201527514995dd85c99081d1c985b9cd9995c8819985a5b195960521b60448201526064016103f5565b60405181815233907fe2403640ba68fed3a2f88b7557551d1993f84b99bb10ff833f0cf8db0c5e04869060200160405180910390a25b505061074960018055565b565b610753610c61565b6107495f610cba565b610764610c61565b60028190556040518181527f41d466ebd06fb97e7786086ac8b69b7eb7da798592036251291d34e9791cde019060200160405180910390a150565b6107a7610c08565b336107b0610997565b600455426003556001600160a01b038116156107fa576107cf816102d4565b6001600160a01b0382165f908152600660209081526040808320939093556004546005909152919020555b5f82116108415760405162461bcd60e51b815260206004820152601560248201527443616e6e6f74207374616b65203020746f6b656e7360581b60448201526064016103f5565b8160095f8282546108529190610daa565b9091555050335f9081526007602052604081208054849290610875908490610daa565b9091555050335f8181526008602052604090819020429055516323b872dd60e01b81526004810191909152306024820152604481018390526001600160a01b037f000000000000000000000000000000000000000000000000000000000000000016906323b872dd906064016020604051808303815f875af11580156108fd573d5f803e3d5ffd5b505050506040513d601f19601f820116820180604052508101906109219190610dbd565b6109655760405162461bcd60e51b815260206004820152601560248201527414dd185ad9481d1c985b9cd9995c8819985a5b1959605a1b60448201526064016103f5565b60405182815233907f9e71bc8eea02a63969f509818f2dafb9254532904319f9dbda79b67bd34a5f3d9060200161059d565b5f6109a160095490565b5f036109ae575060045490565b6009546002546003546109c19042610d61565b6109cb9190610d74565b6109dd90670de0b6b3a7640000610d74565b6109e79190610d8b565b6004546109f49190610daa565b905090565b610a01610c08565b335f9081526007602052604090205480610a505760405162461bcd60e51b815260206004820152601060248201526f139bc81d1bdad95b9cc81cdd185ad95960821b60448201526064016103f5565b8060095f828254610a619190610d61565b9091555050335f81815260076020526040808220919091555163a9059cbb60e01b81526004810191909152602481018290526001600160a01b037f0000000000000000000000000000000000000000000000000000000000000000169063a9059cbb906044016020604051808303815f875af1158015610ae3573d5f803e3d5ffd5b505050506040513d601f19601f82011682018060405250810190610b079190610dbd565b610b535760405162461bcd60e51b815260206004820152601960248201527f456d657267656e6379207769746864726177206661696c65640000000000000060448201526064016103f5565b60405181815233907f7084f5476618d8e60b11ef0d7d3f06914655adb8793e28ff7f018d4c76d505d59060200160405180910390a25061074960018055565b610b9a610c61565b6001600160a01b038116610bff5760405162461bcd60e51b815260206004820152602660248201527f4f776e61626c653a206e6577206f776e657220697320746865207a65726f206160448201526564647265737360d01b60648201526084016103f5565b6105af81610cba565b600260015403610c5a5760405162461bcd60e51b815260206004820152601f60248201527f5265656e7472616e637947756172643a207265656e7472616e742063616c6c0060448201526064016103f5565b6002600155565b5f546001600160a01b031633146107495760405162461bcd60e51b815260206004820181905260248201527f4f776e61626c653a2063616c6c6572206973206e6f7420746865206f776e657260448201526064016103f5565b5f80546001600160a01b038381166001600160a01b0319831681178455604051919092169283917f8be0079c531659141344cd1fd0a4f28419497f9722a3daafe3b4186f6b6457e09190a35050565b5f60208284031215610d19575f80fd5b81356001600160a01b0381168114610d2f575f80fd5b9392505050565b5f60208284031215610d46575f80fd5b5035919050565b634e487b7160e01b5f52601160045260245ffd5b8181038181111561034957610349610d4d565b808202811582820484141761034957610349610d4d565b5f82610da557634e487b7160e01b5f52601260045260245ffd5b500490565b8082018082111561034957610349610d4d565b5f60208284031215610dcd575f80fd5b81518015158114610d2f575f80fdfea2646970667358221220e5f563f1a712401cad154240c534b0252eb3a81a637d2763ba5afce5c246fef164736f6c63430008140033",
  "immutableReferences": {
    "5917": [
      {
        "length": 32,
        "start": 519
      },
      {
        "length": 32,
        "start": 1201
      },
      {
        "length": 32,
        "start": 1625
      },
      {
        "length": 32,
        "start": 2231
      },
      {
        "length": 32,
        "start": 2717
      }
    ]
  },
  "source": "// SPDX-License-Identifier: MIT\r\npragma solidity ^0.8.20;\r\n\r\nimport \"@openzeppelin/contracts/token/ERC20/IERC20.sol\";\r\nimport \"@openzeppelin/contracts/access/Ownable.sol\";\r\nimport \"@openzeppelin/contracts/security/ReentrancyGuard.sol\";\r\n\r\ncontract AIZStaking is Ownable, ReentrancyGuard {\r\n    IERC20 public immutable stakingToken;\r\n    \r\n    uint256 public rewardRate;\r\n    uint256 public lastUpdateTime;\r\n    uint256 public rewardPerTokenStored;\r\n\r\n    mapping(address => uint256) public userRewardPerTokenPaid;\r\n    mapping(address => uint256) public rewards;\r\n    mapping(address => uint256) public stakedBalance;\r\n    mapping(address => uint256) public stakingTime;\r\n\r\n    uint256 private _totalSupply;\r\n\r\n    event Staked(address indexed user, uint256 amount);\r\n    event Withdrawn(address indexed user, uint256 amount);\r\n    event RewardPaid(address indexed user, uint256 reward);\r\n    event RewardRateUpdated(uint256 newRate);\r\n\r\n    constructor(address initialOwner, IERC20 _stakingToken) {\r\n        _transferOwnership(initialOwner);\r\n        stakingToken = _stakingToken;\r\n    }\r\n\r\n    function totalSupply() public view returns (uint256) {\r\n        return _totalSupply;\r\n    }\r\n\r\n    function balanceOf(address account) public view returns (uint256) {\r\n        return stakedBalance[account];\r\n    }\r\n\r\n    function rewardPerToken() public view returns (uint256) {\r\n        if (totalSupply() == 0) {\r\n            return rewardPerTokenStored;\r\n        }\r\n        return\r\n            rewardPerTokenStored + (((block.timestamp - lastUpdateTime) * rewardRate * 1e18) / totalSupply());\r\n    }\r\n\r\n    function earned(address account) public view returns (uint256) {\r\n        return\r\n            ((balanceOf(account) *\r\n                (rewardPerToken() - userRewardPerTokenPaid[account])) / 1e18) +\r\n            rewards[account];\r\n    }\r\n\r\n    function stake(uint256 amount) external nonReentrant updateReward(msg.sender) {\r\n        require(amount > 0, \"Cannot stake 0 tokens\");\r\n        _totalSupply += amount;\r\n        stakedBalance[msg.sender] += amount;\r\n        stakingTime[msg.sender] = block.timestamp;\r\n        require(stakingToken.transferFrom(msg.sender, address(this), amount), \"Stake transfer failed\");\r\n        emit Staked(msg.sender, amount);\r\n    }\r\n\r\n    function withdraw(uint256 amount) public nonReentrant updateReward(msg.sender) {\r\n        require(amount > 0, \"Cannot withdraw 0 tokens\");\r\n        require(stakedBalance[msg.sender] >= amount, \"Not enough tokens staked\");\r\n        _totalSupply -= amount;\r\n        stakedBalance[msg.sender] -= amount;\r\n        require(stakingToken.transfer(msg.sender, amount), \"Withdraw transfer failed\");\r\n        emit Withdrawn(msg.sender, amount);\r\n    }\r\n\r\n    function getReward() public nonReentrant updateReward(msg.sender) {\r\n        uint256 reward = rewards[msg.sender];\r\n        if (reward > 0) {\r\n            rewards[msg.sender] = 0;\r\n            require(stakingToken.transfer(msg.sender, reward), \"Reward transfer failed\");\r\n            emit RewardPaid(msg.sender, reward);\r\n        }\r\n    }\r\n\r\n    modifier updateReward(address account) {\r\n        rewardPerTokenStored = rewardPerToken();\r\n        lastUpdateTime = block.timestamp;\r\n        if (account != address(0)) {\r\n            rewards[account] = earned(account);\r\n            userRewardPerTokenPaid[account] = rewardPerTokenStored;\r\n        }\r\n        _;\r\n    }\r\n\r\n    function setRewardRate(uint256 _rewardRate) external onlyOwner {\r\n        rewardRate = _rewardRate;\r\n        emit RewardRateUpdated(_rewardRate);\r\n    }\r\n\r\n    function emergencyWithdraw() external nonReentrant {\r\n        uint256 stakedAmount = stakedBalance[msg.sender];\r\n        require(stakedAmount > 0, \"No tokens staked\");\r\n        _totalSupply -= stakedAmount;\r\n        stakedBalance[msg.sender] = 0;\r\n        require(stakingToken.transfer(msg.sender, stakedAmount), \"Emergency withdraw failed\");\r\n        emit Withdrawn(msg.sender, stakedAmount);\r\n    }\r\n}",
  "sourcePath": "E:\\AI Zona\\AI Apps\\aizona\\aizona\\smart-contracts\\contracts\\AIZStaking.sol",
  "compiler": {
    "name": "solc",
    "version": "0.8.20+commit.a1b79de6.Emscripten.clang"
  },
  "schemaVersion": "3.4.16",
  "updatedAt": "2024-08-20T19:44:33.028Z",
  "devdoc": {
    "kind": "dev",
    "methods": {
      "owner()": {
        "details": "Returns the address of the current owner."
      },
      "renounceOwnership()": {
        "details": "Leaves the contract without owner. It will not be possible to call `onlyOwner` functions. Can only be called by the current owner. NOTE: Renouncing ownership will leave the contract without an owner, thereby disabling any functionality that is only available to the owner."
      },
      "transferOwnership(address)": {
        "details": "Transfers ownership of the contract to a new account (`newOwner`). Can only be called by the current owner."
      }
    },
    "version": 1
  },
  "userdoc": {
    "kind": "user",
    "methods": {},
    "version": 1
  }
}