{
  "contractName": "AIZToken",
  "abi": [
    {
      "inputs": [
        {
          "internalType": "address",
          "name": "initialOwner",
          "type": "address"
        }
      ],
      "stateMutability": "nonpayable",
      "type": "constructor"
    },
    {
      "inputs": [],
      "name": "InvalidShortString",
      "type": "error"
    },
    {
      "inputs": [
        {
          "internalType": "string",
          "name": "str",
          "type": "string"
        }
      ],
      "name": "StringTooLong",
      "type": "error"
    },
    {
      "anonymous": false,
      "inputs": [
        {
          "indexed": true,
          "internalType": "address",
          "name": "owner",
          "type": "address"
        },
        {
          "indexed": true,
          "internalType": "address",
          "name": "spender",
          "type": "address"
        },
        {
          "indexed": false,
          "internalType": "uint256",
          "name": "value",
          "type": "uint256"
        }
      ],
      "name": "Approval",
      "type": "event"
    },
    {
      "anonymous": false,
      "inputs": [
        {
          "indexed": true,
          "internalType": "address",
          "name": "delegator",
          "type": "address"
        },
        {
          "indexed": true,
          "internalType": "address",
          "name": "fromDelegate",
          "type": "address"
        },
        {
          "indexed": true,
          "internalType": "address",
          "name": "toDelegate",
          "type": "address"
        }
      ],
      "name": "DelegateChanged",
      "type": "event"
    },
    {
      "anonymous": false,
      "inputs": [
        {
          "indexed": true,
          "internalType": "address",
          "name": "delegate",
          "type": "address"
        },
        {
          "indexed": false,
          "internalType": "uint256",
          "name": "previousBalance",
          "type": "uint256"
        },
        {
          "indexed": false,
          "internalType": "uint256",
          "name": "newBalance",
          "type": "uint256"
        }
      ],
      "name": "DelegateVotesChanged",
      "type": "event"
    },
    {
      "anonymous": false,
      "inputs": [],
      "name": "EIP712DomainChanged",
      "type": "event"
    },
    {
      "anonymous": false,
      "inputs": [
        {
          "indexed": true,
          "internalType": "address",
          "name": "previousOwner",
          "type": "address"
        },
        {
          "indexed": true,
          "internalType": "address",
          "name": "newOwner",
          "type": "address"
        }
      ],
      "name": "OwnershipTransferred",
      "type": "event"
    },
    {
      "anonymous": false,
      "inputs": [
        {
          "indexed": false,
          "internalType": "address",
          "name": "account",
          "type": "address"
        }
      ],
      "name": "Paused",
      "type": "event"
    },
    {
      "anonymous": false,
      "inputs": [
        {
          "indexed": true,
          "internalType": "address",
          "name": "from",
          "type": "address"
        },
        {
          "indexed": true,
          "internalType": "address",
          "name": "to",
          "type": "address"
        },
        {
          "indexed": false,
          "internalType": "uint256",
          "name": "value",
          "type": "uint256"
        }
      ],
      "name": "Transfer",
      "type": "event"
    },
    {
      "anonymous": false,
      "inputs": [
        {
          "indexed": false,
          "internalType": "address",
          "name": "account",
          "type": "address"
        }
      ],
      "name": "Unpaused",
      "type": "event"
    },
    {
      "inputs": [],
      "name": "CLOCK_MODE",
      "outputs": [
        {
          "internalType": "string",
          "name": "",
          "type": "string"
        }
      ],
      "stateMutability": "view",
      "type": "function"
    },
    {
      "inputs": [],
      "name": "DOMAIN_SEPARATOR",
      "outputs": [
        {
          "internalType": "bytes32",
          "name": "",
          "type": "bytes32"
        }
      ],
      "stateMutability": "view",
      "type": "function"
    },
    {
      "inputs": [
        {
          "internalType": "address",
          "name": "owner",
          "type": "address"
        },
        {
          "internalType": "address",
          "name": "spender",
          "type": "address"
        }
      ],
      "name": "allowance",
      "outputs": [
        {
          "internalType": "uint256",
          "name": "",
          "type": "uint256"
        }
      ],
      "stateMutability": "view",
      "type": "function"
    },
    {
      "inputs": [
        {
          "internalType": "address",
          "name": "spender",
          "type": "address"
        },
        {
          "internalType": "uint256",
          "name": "amount",
          "type": "uint256"
        }
      ],
      "name": "approve",
      "outputs": [
        {
          "internalType": "bool",
          "name": "",
          "type": "bool"
        }
      ],
      "stateMutability": "nonpayable",
      "type": "function"
    },
    {
      "inputs": [
        {
          "internalType": "address",
          "name": "account",
          "type": "address"
        }
      ],
      "name": "balanceOf",
      "outputs": [
        {
          "internalType": "uint256",
          "name": "",
          "type": "uint256"
        }
      ],
      "stateMutability": "view",
      "type": "function"
    },
    {
      "inputs": [
        {
          "internalType": "uint256",
          "name": "amount",
          "type": "uint256"
        }
      ],
      "name": "burn",
      "outputs": [],
      "stateMutability": "nonpayable",
      "type": "function"
    },
    {
      "inputs": [
        {
          "internalType": "address",
          "name": "account",
          "type": "address"
        },
        {
          "internalType": "uint256",
          "name": "amount",
          "type": "uint256"
        }
      ],
      "name": "burnFrom",
      "outputs": [],
      "stateMutability": "nonpayable",
      "type": "function"
    },
    {
      "inputs": [
        {
          "internalType": "address",
          "name": "account",
          "type": "address"
        },
        {
          "internalType": "uint32",
          "name": "pos",
          "type": "uint32"
        }
      ],
      "name": "checkpoints",
      "outputs": [
        {
          "components": [
            {
              "internalType": "uint32",
              "name": "fromBlock",
              "type": "uint32"
            },
            {
              "internalType": "uint224",
              "name": "votes",
              "type": "uint224"
            }
          ],
          "internalType": "struct ERC20Votes.Checkpoint",
          "name": "",
          "type": "tuple"
        }
      ],
      "stateMutability": "view",
      "type": "function"
    },
    {
      "inputs": [],
      "name": "clock",
      "outputs": [
        {
          "internalType": "uint48",
          "name": "",
          "type": "uint48"
        }
      ],
      "stateMutability": "view",
      "type": "function"
    },
    {
      "inputs": [],
      "name": "decimals",
      "outputs": [
        {
          "internalType": "uint8",
          "name": "",
          "type": "uint8"
        }
      ],
      "stateMutability": "view",
      "type": "function"
    },
    {
      "inputs": [
        {
          "internalType": "address",
          "name": "spender",
          "type": "address"
        },
        {
          "internalType": "uint256",
          "name": "subtractedValue",
          "type": "uint256"
        }
      ],
      "name": "decreaseAllowance",
      "outputs": [
        {
          "internalType": "bool",
          "name": "",
          "type": "bool"
        }
      ],
      "stateMutability": "nonpayable",
      "type": "function"
    },
    {
      "inputs": [
        {
          "internalType": "address",
          "name": "delegatee",
          "type": "address"
        }
      ],
      "name": "delegate",
      "outputs": [],
      "stateMutability": "nonpayable",
      "type": "function"
    },
    {
      "inputs": [
        {
          "internalType": "address",
          "name": "delegatee",
          "type": "address"
        },
        {
          "internalType": "uint256",
          "name": "nonce",
          "type": "uint256"
        },
        {
          "internalType": "uint256",
          "name": "expiry",
          "type": "uint256"
        },
        {
          "internalType": "uint8",
          "name": "v",
          "type": "uint8"
        },
        {
          "internalType": "bytes32",
          "name": "r",
          "type": "bytes32"
        },
        {
          "internalType": "bytes32",
          "name": "s",
          "type": "bytes32"
        }
      ],
      "name": "delegateBySig",
      "outputs": [],
      "stateMutability": "nonpayable",
      "type": "function"
    },
    {
      "inputs": [
        {
          "internalType": "address",
          "name": "account",
          "type": "address"
        }
      ],
      "name": "delegates",
      "outputs": [
        {
          "internalType": "address",
          "name": "",
          "type": "address"
        }
      ],
      "stateMutability": "view",
      "type": "function"
    },
    {
      "inputs": [],
      "name": "eip712Domain",
      "outputs": [
        {
          "internalType": "bytes1",
          "name": "fields",
          "type": "bytes1"
        },
        {
          "internalType": "string",
          "name": "name",
          "type": "string"
        },
        {
          "internalType": "string",
          "name": "version",
          "type": "string"
        },
        {
          "internalType": "uint256",
          "name": "chainId",
          "type": "uint256"
        },
        {
          "internalType": "address",
          "name": "verifyingContract",
          "type": "address"
        },
        {
          "internalType": "bytes32",
          "name": "salt",
          "type": "bytes32"
        },
        {
          "internalType": "uint256[]",
          "name": "extensions",
          "type": "uint256[]"
        }
      ],
      "stateMutability": "view",
      "type": "function"
    },
    {
      "inputs": [
        {
          "internalType": "uint256",
          "name": "timepoint",
          "type": "uint256"
        }
      ],
      "name": "getPastTotalSupply",
      "outputs": [
        {
          "internalType": "uint256",
          "name": "",
          "type": "uint256"
        }
      ],
      "stateMutability": "view",
      "type": "function"
    },
    {
      "inputs": [
        {
          "internalType": "address",
          "name": "account",
          "type": "address"
        },
        {
          "internalType": "uint256",
          "name": "timepoint",
          "type": "uint256"
        }
      ],
      "name": "getPastVotes",
      "outputs": [
        {
          "internalType": "uint256",
          "name": "",
          "type": "uint256"
        }
      ],
      "stateMutability": "view",
      "type": "function"
    },
    {
      "inputs": [
        {
          "internalType": "address",
          "name": "account",
          "type": "address"
        }
      ],
      "name": "getVotes",
      "outputs": [
        {
          "internalType": "uint256",
          "name": "",
          "type": "uint256"
        }
      ],
      "stateMutability": "view",
      "type": "function"
    },
    {
      "inputs": [
        {
          "internalType": "address",
          "name": "spender",
          "type": "address"
        },
        {
          "internalType": "uint256",
          "name": "addedValue",
          "type": "uint256"
        }
      ],
      "name": "increaseAllowance",
      "outputs": [
        {
          "internalType": "bool",
          "name": "",
          "type": "bool"
        }
      ],
      "stateMutability": "nonpayable",
      "type": "function"
    },
    {
      "inputs": [],
      "name": "name",
      "outputs": [
        {
          "internalType": "string",
          "name": "",
          "type": "string"
        }
      ],
      "stateMutability": "view",
      "type": "function"
    },
    {
      "inputs": [
        {
          "internalType": "address",
          "name": "owner",
          "type": "address"
        }
      ],
      "name": "nonces",
      "outputs": [
        {
          "internalType": "uint256",
          "name": "",
          "type": "uint256"
        }
      ],
      "stateMutability": "view",
      "type": "function"
    },
    {
      "inputs": [
        {
          "internalType": "address",
          "name": "account",
          "type": "address"
        }
      ],
      "name": "numCheckpoints",
      "outputs": [
        {
          "internalType": "uint32",
          "name": "",
          "type": "uint32"
        }
      ],
      "stateMutability": "view",
      "type": "function"
    },
    {
      "inputs": [],
      "name": "owner",
      "outputs": [
        {
          "internalType": "address",
          "name": "",
          "type": "address"
        }
      ],
      "stateMutability": "view",
      "type": "function"
    },
    {
      "inputs": [],
      "name": "paused",
      "outputs": [
        {
          "internalType": "bool",
          "name": "",
          "type": "bool"
        }
      ],
      "stateMutability": "view",
      "type": "function"
    },
    {
      "inputs": [
        {
          "internalType": "address",
          "name": "owner",
          "type": "address"
        },
        {
          "internalType": "address",
          "name": "spender",
          "type": "address"
        },
        {
          "internalType": "uint256",
          "name": "value",
          "type": "uint256"
        },
        {
          "internalType": "uint256",
          "name": "deadline",
          "type": "uint256"
        },
        {
          "internalType": "uint8",
          "name": "v",
          "type": "uint8"
        },
        {
          "internalType": "bytes32",
          "name": "r",
          "type": "bytes32"
        },
        {
          "internalType": "bytes32",
          "name": "s",
          "type": "bytes32"
        }
      ],
      "name": "permit",
      "outputs": [],
      "stateMutability": "nonpayable",
      "type": "function"
    },
    {
      "inputs": [],
      "name": "renounceOwnership",
      "outputs": [],
      "stateMutability": "nonpayable",
      "type": "function"
    },
    {
      "inputs": [],
      "name": "symbol",
      "outputs": [
        {
          "internalType": "string",
          "name": "",
          "type": "string"
        }
      ],
      "stateMutability": "view",
      "type": "function"
    },
    {
      "inputs": [],
      "name": "totalSupply",
      "outputs": [
        {
          "internalType": "uint256",
          "name": "",
          "type": "uint256"
        }
      ],
      "stateMutability": "view",
      "type": "function"
    },
    {
      "inputs": [
        {
          "internalType": "address",
          "name": "to",
          "type": "address"
        },
        {
          "internalType": "uint256",
          "name": "amount",
          "type": "uint256"
        }
      ],
      "name": "transfer",
      "outputs": [
        {
          "internalType": "bool",
          "name": "",
          "type": "bool"
        }
      ],
      "stateMutability": "nonpayable",
      "type": "function"
    },
    {
      "inputs": [
        {
          "internalType": "address",
          "name": "from",
          "type": "address"
        },
        {
          "internalType": "address",
          "name": "to",
          "type": "address"
        },
        {
          "internalType": "uint256",
          "name": "amount",
          "type": "uint256"
        }
      ],
      "name": "transferFrom",
      "outputs": [
        {
          "internalType": "bool",
          "name": "",
          "type": "bool"
        }
      ],
      "stateMutability": "nonpayable",
      "type": "function"
    },
    {
      "inputs": [
        {
          "internalType": "address",
          "name": "newOwner",
          "type": "address"
        }
      ],
      "name": "transferOwnership",
      "outputs": [],
      "stateMutability": "nonpayable",
      "type": "function"
    },
    {
      "inputs": [],
      "name": "pause",
      "outputs": [],
      "stateMutability": "nonpayable",
      "type": "function"
    },
    {
      "inputs": [],
      "name": "unpause",
      "outputs": [],
      "stateMutability": "nonpayable",
      "type": "function"
    },
    {
      "inputs": [
        {
          "internalType": "address",
          "name": "to",
          "type": "address"
        },
        {
          "internalType": "uint256",
          "name": "amount",
          "type": "uint256"
        }
      ],
      "name": "mint",
      "outputs": [],
      "stateMutability": "nonpayable",
      "type": "function"
    }
  ],
  "bytecode": "0x61016060405234801562000011575f80fd5b5060405162002a0438038062002a04833981016040819052620000349162000288565b6040518060400160405280600881526020016720a4ad2a37b5b2b760c11b81525080604051806040016040528060018152602001603160f81b8152506040518060400160405280600881526020016720a4ad2a37b5b2b760c11b8152506040518060400160405280600381526020016220a4ad60e91b8152508160039081620000be919062000357565b506004620000cd828262000357565b50506005805460ff1916905550620000e533620001ac565b620000f282600662000205565b610120526200010381600762000205565b61014052815160208084019190912060e052815190820120610100524660a0526200019060e05161010051604080517f8b73c3c69bb8fe3d512ecc4cf759cc79239f7b179b0ffacaa9a75d522b39400f60208201529081019290925260608201524660808201523060a08201525f9060c00160405160208183030381529060405280519060200120905090565b60805250503060c05250620001a581620001ac565b5062000490565b600580546001600160a01b03838116610100818102610100600160a81b031985161790945560405193909204169182907f8be0079c531659141344cd1fd0a4f28419497f9722a3daafe3b4186f6b6457e0905f90a35050565b5f60208351101562000224576200021c836200023d565b905062000237565b8162000231848262000357565b5060ff90505b92915050565b5f80829050601f8151111562000273578260405163305a27a960e01b81526004016200026a91906200041f565b60405180910390fd5b805162000280826200046c565b179392505050565b5f6020828403121562000299575f80fd5b81516001600160a01b0381168114620002b0575f80fd5b9392505050565b634e487b7160e01b5f52604160045260245ffd5b600181811c90821680620002e057607f821691505b602082108103620002ff57634e487b7160e01b5f52602260045260245ffd5b50919050565b601f82111562000352575f81815260208120601f850160051c810160208610156200032d5750805b601f850160051c820191505b818110156200034e5782815560010162000339565b5050505b505050565b81516001600160401b03811115620003735762000373620002b7565b6200038b81620003848454620002cb565b8462000305565b602080601f831160018114620003c1575f8415620003a95750858301515b5f19600386901b1c1916600185901b1785556200034e565b5f85815260208120601f198616915b82811015620003f157888601518255948401946001909101908401620003d0565b50858210156200040f57878501515f19600388901b60f8161c191681555b5050505050600190811b01905550565b5f6020808352835180828501525f5b818110156200044c578581018301518582016040015282016200042e565b505f604082860101526040601f19601f8301168501019250505092915050565b80516020808301519190811015620002ff575f1960209190910360031b1b16919050565b60805160a05160c05160e051610100516101205161014051612522620004e25f395f6107f601525f6107cb01525f6111a601525f61117e01525f6110d901525f61110301525f61112d01526125225ff3fe608060405234801561000f575f80fd5b50600436106101fd575f3560e01c8063715018a61161011457806395d89b41116100a9578063c3cda52011610079578063c3cda52014610467578063d505accf1461047a578063dd62ed3e1461048d578063f1127ed8146104a0578063f2fde38b146104dd575f80fd5b806395d89b41146104265780639ab24eb01461042e578063a457c2d714610441578063a9059cbb14610454575f80fd5b806384b0196e116100e457806384b0196e146103c35780638da5cb5b146103de5780638e539e8c146103f457806391ddadf414610407575f80fd5b8063715018a61461038d57806379cc6790146103955780637ecebe00146103a85780638456cb59146103bb575f80fd5b80633f4ba83a11610195578063587cde1e11610165578063587cde1e146102dc5780635c19a95c1461031f5780635c975abb146103325780636fcfff451461033d57806370a0823114610365575f80fd5b80633f4ba83a146102a457806340c10f19146102ae57806342966c68146102c15780634bf5d7e9146102d4575f80fd5b8063313ce567116101d0578063313ce567146102675780633644e51514610276578063395093511461027e5780633a46b1a814610291575f80fd5b806306fdde0314610201578063095ea7b31461021f57806318160ddd1461024257806323b872dd14610254575b5f80fd5b6102096104f0565b604051610216919061219c565b60405180910390f35b61023261022d3660046121c9565b610580565b6040519015158152602001610216565b6002545b604051908152602001610216565b6102326102623660046121f1565b610599565b60405160128152602001610216565b6102466105bc565b61023261028c3660046121c9565b6105ca565b61024661029f3660046121c9565b6105eb565b6102ac610673565b005b6102ac6102bc3660046121c9565b610685565b6102ac6102cf36600461222a565b61069b565b6102096106a8565b6103076102ea366004612241565b6001600160a01b039081165f908152600a60205260409020541690565b6040516001600160a01b039091168152602001610216565b6102ac61032d366004612241565b610740565b60055460ff16610232565b61035061034b366004612241565b61074a565b60405163ffffffff9091168152602001610216565b610246610373366004612241565b6001600160a01b03165f9081526020819052604090205490565b6102ac61076b565b6102ac6103a33660046121c9565b61077c565b6102466103b6366004612241565b610791565b6102ac6107ae565b6103cb6107be565b604051610216979695949392919061225a565b60055461010090046001600160a01b0316610307565b61024661040236600461222a565b610845565b61040f6108ab565b60405165ffffffffffff9091168152602001610216565b6102096108b5565b61024661043c366004612241565b6108c4565b61023261044f3660046121c9565b610941565b6102326104623660046121c9565b6109bb565b6102ac6104753660046122fe565b6109c8565b6102ac610488366004612352565b610afd565b61024661049b3660046123b7565b610c5e565b6104b36104ae3660046123e8565b610c88565b60408051825163ffffffff1681526020928301516001600160e01b03169281019290925201610216565b6102ac6104eb366004612241565b610d09565b6060600380546104ff90612425565b80601f016020809104026020016040519081016040528092919081815260200182805461052b90612425565b80156105765780601f1061054d57610100808354040283529160200191610576565b820191905f5260205f20905b81548152906001019060200180831161055957829003601f168201915b5050505050905090565b5f3361058d818585610d7f565b60019150505b92915050565b5f336105a6858285610ea2565b6105b1858585610f1a565b506001949350505050565b5f6105c56110cd565b905090565b5f3361058d8185856105dc8383610c5e565b6105e6919061246b565b610d7f565b5f6105f46108ab565b65ffffffffffff16821061064b5760405162461bcd60e51b815260206004820152601960248201527804552433230566f7465733a20667574757265206c6f6f6b757603c1b60448201526064015b60405180910390fd5b6001600160a01b0383165f908152600b6020526040902061066c90836111f6565b9392505050565b61067b6112d7565b610683611337565b565b61068d6112d7565b6106978282611389565b5050565b6106a53382611393565b50565b6060436106b36108ab565b65ffffffffffff16146107085760405162461bcd60e51b815260206004820152601d60248201527f4552433230566f7465733a2062726f6b656e20636c6f636b206d6f64650000006044820152606401610642565b5060408051808201909152601d81527f6d6f64653d626c6f636b6e756d6265722666726f6d3d64656661756c74000000602082015290565b6106a5338261139d565b6001600160a01b0381165f908152600b602052604081205461059390611415565b6107736112d7565b6106835f61147d565b610787823383610ea2565b6106978282611393565b6001600160a01b0381165f90815260086020526040812054610593565b6107b66112d7565b6106836114d6565b5f606080828080836107f17f00000000000000000000000000000000000000000000000000000000000000006006611513565b61081c7f00000000000000000000000000000000000000000000000000000000000000006007611513565b604080515f80825260208201909252600f60f81b9b939a50919850469750309650945092509050565b5f61084e6108ab565b65ffffffffffff1682106108a05760405162461bcd60e51b815260206004820152601960248201527804552433230566f7465733a20667574757265206c6f6f6b757603c1b6044820152606401610642565b610593600c836111f6565b5f6105c5436115bc565b6060600480546104ff90612425565b6001600160a01b0381165f908152600b6020526040812054801561092f576001600160a01b0383165f908152600b6020526040902080545f19830190811061090e5761090e61247e565b5f9182526020909120015464010000000090046001600160e01b0316610931565b5f5b6001600160e01b03169392505050565b5f338161094e8286610c5e565b9050838110156109ae5760405162461bcd60e51b815260206004820152602560248201527f45524332303a2064656372656173656420616c6c6f77616e63652062656c6f77604482015264207a65726f60d81b6064820152608401610642565b6105b18286868403610d7f565b5f3361058d818585610f1a565b83421115610a185760405162461bcd60e51b815260206004820152601d60248201527f4552433230566f7465733a207369676e617475726520657870697265640000006044820152606401610642565b604080517fe48329057bfd03d55e49b547132e39cffd9c1820ad7b9d4c5307691425d15adf60208201526001600160a01b0388169181019190915260608101869052608081018590525f90610a9190610a899060a00160405160208183030381529060405280519060200120611622565b85858561164e565b9050610a9c81611674565b8614610aea5760405162461bcd60e51b815260206004820152601960248201527f4552433230566f7465733a20696e76616c6964206e6f6e6365000000000000006044820152606401610642565b610af4818861139d565b50505050505050565b83421115610b4d5760405162461bcd60e51b815260206004820152601d60248201527f45524332305065726d69743a206578706972656420646561646c696e650000006044820152606401610642565b5f7f6e71edae12b1b97f4d1f60370fef10105fa2faae0126114a169c64845d6126c9888888610b7b8c611674565b6040805160208101969096526001600160a01b0394851690860152929091166060840152608083015260a082015260c0810186905260e0016040516020818303038152906040528051906020012090505f610bd582611622565b90505f610be48287878761164e565b9050896001600160a01b0316816001600160a01b031614610c475760405162461bcd60e51b815260206004820152601e60248201527f45524332305065726d69743a20696e76616c6964207369676e617475726500006044820152606401610642565b610c528a8a8a610d7f565b50505050505050505050565b6001600160a01b039182165f90815260016020908152604080832093909416825291909152205490565b604080518082019091525f80825260208201526001600160a01b0383165f908152600b60205260409020805463ffffffff8416908110610cca57610cca61247e565b5f9182526020918290206040805180820190915291015463ffffffff8116825264010000000090046001600160e01b0316918101919091529392505050565b610d116112d7565b6001600160a01b038116610d765760405162461bcd60e51b815260206004820152602660248201527f4f776e61626c653a206e6577206f776e657220697320746865207a65726f206160448201526564647265737360d01b6064820152608401610642565b6106a58161147d565b6001600160a01b038316610de15760405162461bcd60e51b8152602060048201526024808201527f45524332303a20617070726f76652066726f6d20746865207a65726f206164646044820152637265737360e01b6064820152608401610642565b6001600160a01b038216610e425760405162461bcd60e51b815260206004820152602260248201527f45524332303a20617070726f766520746f20746865207a65726f206164647265604482015261737360f01b6064820152608401610642565b6001600160a01b038381165f8181526001602090815260408083209487168084529482529182902085905590518481527f8c5be1e5ebec7d5bd14f71427d1e84f3dd0314c0f7b2291e5b200ac8c7c3b925910160405180910390a3505050565b5f610ead8484610c5e565b90505f198114610f145781811015610f075760405162461bcd60e51b815260206004820152601d60248201527f45524332303a20696e73756666696369656e7420616c6c6f77616e63650000006044820152606401610642565b610f148484848403610d7f565b50505050565b6001600160a01b038316610f7e5760405162461bcd60e51b815260206004820152602560248201527f45524332303a207472616e736665722066726f6d20746865207a65726f206164604482015264647265737360d81b6064820152608401610642565b6001600160a01b038216610fe05760405162461bcd60e51b815260206004820152602360248201527f45524332303a207472616e7366657220746f20746865207a65726f206164647260448201526265737360e81b6064820152608401610642565b610feb83838361169b565b6001600160a01b0383165f90815260208190526040902054818110156110625760405162461bcd60e51b815260206004820152602660248201527f45524332303a207472616e7366657220616d6f756e7420657863656564732062604482015265616c616e636560d01b6064820152608401610642565b6001600160a01b038481165f81815260208181526040808320878703905593871680835291849020805487019055925185815290927fddf252ad1be2c89b69c2b068fc378daa952ba7f163c4a11628f55a4df523b3ef910160405180910390a3610f148484846116a8565b5f306001600160a01b037f00000000000000000000000000000000000000000000000000000000000000001614801561112557507f000000000000000000000000000000000000000000000000000000000000000046145b1561114f57507f000000000000000000000000000000000000000000000000000000000000000090565b6105c5604080517f8b73c3c69bb8fe3d512ecc4cf759cc79239f7b179b0ffacaa9a75d522b39400f60208201527f0000000000000000000000000000000000000000000000000000000000000000918101919091527f000000000000000000000000000000000000000000000000000000000000000060608201524660808201523060a08201525f9060c00160405160208183030381529060405280519060200120905090565b81545f908181600581111561124d575f61120f846116b3565b6112199085612492565b5f88815260209020909150869082015463ffffffff16111561123d5780915061124b565b61124881600161246b565b92505b505b80821015611298575f6112608383611797565b5f88815260209020909150869082015463ffffffff16111561128457809150611292565b61128f81600161246b565b92505b5061124d565b80156112c2575f8681526020902081015f19015464010000000090046001600160e01b03166112c4565b5f5b6001600160e01b03169695505050505050565b6005546001600160a01b036101009091041633146106835760405162461bcd60e51b815260206004820181905260248201527f4f776e61626c653a2063616c6c6572206973206e6f7420746865206f776e65726044820152606401610642565b61133f6117b1565b6005805460ff191690557f5db9ee0a495bf2e6ff9c91a7834c1ba4fdd244a5e8aa4e537bd38aeae4b073aa335b6040516001600160a01b03909116815260200160405180910390a1565b61069782826117fa565b6106978282611884565b6001600160a01b038281165f818152600a60208181526040808420805485845282862054949093528787166001600160a01b03198416811790915590519190951694919391928592917f3134e8a2e6d97e929a7e54011ea5485d7d196dd5f0ba4d4ef95803e8e3fc257f9190a4610f1482848361189c565b5f63ffffffff8211156114795760405162461bcd60e51b815260206004820152602660248201527f53616665436173743a2076616c756520646f65736e27742066697420696e203360448201526532206269747360d01b6064820152608401610642565b5090565b600580546001600160a01b03838116610100818102610100600160a81b031985161790945560405193909204169182907f8be0079c531659141344cd1fd0a4f28419497f9722a3daafe3b4186f6b6457e0905f90a35050565b6114de6119d6565b6005805460ff191660011790557f62e78cea01bee320cd4e420270b5ea74000d11b0c9f74754ebdbfc544b05a25861136c3390565b606060ff831461152d5761152683611a1c565b9050610593565b81805461153990612425565b80601f016020809104026020016040519081016040528092919081815260200182805461156590612425565b80156115b05780601f10611587576101008083540402835291602001916115b0565b820191905f5260205f20905b81548152906001019060200180831161159357829003601f168201915b50505050509050610593565b5f65ffffffffffff8211156114795760405162461bcd60e51b815260206004820152602660248201527f53616665436173743a2076616c756520646f65736e27742066697420696e203460448201526538206269747360d01b6064820152608401610642565b5f61059361162e6110cd565b8360405161190160f01b8152600281019290925260228201526042902090565b5f805f61165d87878787611a59565b9150915061166a81611b16565b5095945050505050565b6001600160a01b0381165f9081526008602052604090208054600181018255905b50919050565b6116a36119d6565b505050565b6116a3838383611c5f565b5f815f036116c257505f919050565b5f60016116ce84611c90565b901c6001901b905060018184816116e7576116e76124a5565b048201901c905060018184816116ff576116ff6124a5565b048201901c90506001818481611717576117176124a5565b048201901c9050600181848161172f5761172f6124a5565b048201901c90506001818481611747576117476124a5565b048201901c9050600181848161175f5761175f6124a5565b048201901c90506001818481611777576117776124a5565b048201901c905061066c81828581611791576117916124a5565b04611d23565b5f6117a560028484186124b9565b61066c9084841661246b565b60055460ff166106835760405162461bcd60e51b815260206004820152601460248201527314185d5cd8589b194e881b9bdd081c185d5cd95960621b6044820152606401610642565b6118048282611d38565b6002546001600160e01b0310156118765760405162461bcd60e51b815260206004820152603060248201527f4552433230566f7465733a20746f74616c20737570706c79207269736b73206f60448201526f766572666c6f77696e6720766f74657360801b6064820152608401610642565b610f14600c611e0783611e12565b61188e8282611f7e565b610f14600c6120bf83611e12565b816001600160a01b0316836001600160a01b0316141580156118bd57505f81115b156116a3576001600160a01b0383161561194a576001600160a01b0383165f908152600b6020526040812081906118f7906120bf85611e12565b91509150846001600160a01b03167fdec2bacdd2f05b59de34da9b523dff8be42e5e38e818c82fdb0bae774387a724838360405161193f929190918252602082015260400190565b60405180910390a250505b6001600160a01b038216156116a3576001600160a01b0382165f908152600b60205260408120819061197f90611e0785611e12565b91509150836001600160a01b03167fdec2bacdd2f05b59de34da9b523dff8be42e5e38e818c82fdb0bae774387a72483836040516119c7929190918252602082015260400190565b60405180910390a25050505050565b60055460ff16156106835760405162461bcd60e51b815260206004820152601060248201526f14185d5cd8589b194e881c185d5cd95960821b6044820152606401610642565b60605f611a28836120ca565b6040805160208082528183019092529192505f91906020820181803683375050509182525060208101929092525090565b5f807f7fffffffffffffffffffffffffffffff5d576e7357a4501ddfe92f46681b20a0831115611a8e57505f90506003611b0d565b604080515f8082526020820180845289905260ff881692820192909252606081018690526080810185905260019060a0016020604051602081039080840390855afa158015611adf573d5f803e3d5ffd5b5050604051601f1901519150506001600160a01b038116611b07575f60019250925050611b0d565b91505f90505b94509492505050565b5f816004811115611b2957611b296124d8565b03611b315750565b6001816004811115611b4557611b456124d8565b03611b925760405162461bcd60e51b815260206004820152601860248201527f45434453413a20696e76616c6964207369676e617475726500000000000000006044820152606401610642565b6002816004811115611ba657611ba66124d8565b03611bf35760405162461bcd60e51b815260206004820152601f60248201527f45434453413a20696e76616c6964207369676e6174757265206c656e677468006044820152606401610642565b6003816004811115611c0757611c076124d8565b036106a55760405162461bcd60e51b815260206004820152602260248201527f45434453413a20696e76616c6964207369676e6174757265202773272076616c604482015261756560f01b6064820152608401610642565b6001600160a01b038381165f908152600a60205260408082205485841683529120546116a39291821691168361189c565b5f80608083901c15611ca457608092831c92015b604083901c15611cb657604092831c92015b602083901c15611cc857602092831c92015b601083901c15611cda57601092831c92015b600883901c15611cec57600892831c92015b600483901c15611cfe57600492831c92015b600283901c15611d1057600292831c92015b600183901c156105935760010192915050565b5f818310611d31578161066c565b5090919050565b6001600160a01b038216611d8e5760405162461bcd60e51b815260206004820152601f60248201527f45524332303a206d696e7420746f20746865207a65726f2061646472657373006044820152606401610642565b611d995f838361169b565b8060025f828254611daa919061246b565b90915550506001600160a01b0382165f81815260208181526040808320805486019055518481527fddf252ad1be2c89b69c2b068fc378daa952ba7f163c4a11628f55a4df523b3ef910160405180910390a36106975f83836116a8565b5f61066c828461246b565b82545f908190818115611e5c575f8781526020902082015f190160408051808201909152905463ffffffff8116825264010000000090046001600160e01b03166020820152611e70565b604080518082019091525f80825260208201525b905080602001516001600160e01b03169350611e9084868863ffffffff16565b92505f82118015611eb85750611ea46108ab565b65ffffffffffff16815f015163ffffffff16145b15611efb57611ec6836120f1565b5f8881526020902083015f190180546001600160e01b03929092166401000000000263ffffffff909216919091179055611f74565b866040518060400160405280611f1f611f126108ab565b65ffffffffffff16611415565b63ffffffff168152602001611f33866120f1565b6001600160e01b0390811690915282546001810184555f938452602093849020835194909301519091166401000000000263ffffffff909316929092179101555b5050935093915050565b6001600160a01b038216611fde5760405162461bcd60e51b815260206004820152602160248201527f45524332303a206275726e2066726f6d20746865207a65726f206164647265736044820152607360f81b6064820152608401610642565b611fe9825f8361169b565b6001600160a01b0382165f908152602081905260409020548181101561205c5760405162461bcd60e51b815260206004820152602260248201527f45524332303a206275726e20616d6f756e7420657863656564732062616c616e604482015261636560f01b6064820152608401610642565b6001600160a01b0383165f818152602081815260408083208686039055600280548790039055518581529192917fddf252ad1be2c89b69c2b068fc378daa952ba7f163c4a11628f55a4df523b3ef910160405180910390a36116a3835f846116a8565b5f61066c8284612492565b5f60ff8216601f81111561059357604051632cd44ac360e21b815260040160405180910390fd5b5f6001600160e01b038211156114795760405162461bcd60e51b815260206004820152602760248201527f53616665436173743a2076616c756520646f65736e27742066697420696e20326044820152663234206269747360c81b6064820152608401610642565b5f81518084525f5b8181101561217d57602081850181015186830182015201612161565b505f602082860101526020601f19601f83011685010191505092915050565b602081525f61066c6020830184612159565b80356001600160a01b03811681146121c4575f80fd5b919050565b5f80604083850312156121da575f80fd5b6121e3836121ae565b946020939093013593505050565b5f805f60608486031215612203575f80fd5b61220c846121ae565b925061221a602085016121ae565b9150604084013590509250925092565b5f6020828403121561223a575f80fd5b5035919050565b5f60208284031215612251575f80fd5b61066c826121ae565b60ff60f81b881681525f602060e08184015261227960e084018a612159565b838103604085015261228b818a612159565b606085018990526001600160a01b038816608086015260a0850187905284810360c086015285518082528387019250908301905f5b818110156122dc578351835292840192918401916001016122c0565b50909c9b505050505050505050505050565b803560ff811681146121c4575f80fd5b5f805f805f8060c08789031215612313575f80fd5b61231c876121ae565b95506020870135945060408701359350612338606088016122ee565b92506080870135915060a087013590509295509295509295565b5f805f805f805f60e0888a031215612368575f80fd5b612371886121ae565b965061237f602089016121ae565b9550604088013594506060880135935061239b608089016122ee565b925060a0880135915060c0880135905092959891949750929550565b5f80604083850312156123c8575f80fd5b6123d1836121ae565b91506123df602084016121ae565b90509250929050565b5f80604083850312156123f9575f80fd5b612402836121ae565b9150602083013563ffffffff8116811461241a575f80fd5b809150509250929050565b600181811c9082168061243957607f821691505b60208210810361169557634e487b7160e01b5f52602260045260245ffd5b634e487b7160e01b5f52601160045260245ffd5b8082018082111561059357610593612457565b634e487b7160e01b5f52603260045260245ffd5b8181038181111561059357610593612457565b634e487b7160e01b5f52601260045260245ffd5b5f826124d357634e487b7160e01b5f52601260045260245ffd5b500490565b634e487b7160e01b5f52602160045260245ffdfea2646970667358221220d6db9a21ffac22f569cb406246c8441576c34959404eff755a49f5a3439c5eb964736f6c63430008140033",
  "immutableReferences": {
    "3130": [
      {
        "length": 32,
        "start": 4397
      }
    ],
    "3132": [
      {
        "length": 32,
        "start": 4355
      }
    ],
    "3134": [
      {
        "length": 32,
        "start": 4313
      }
    ],
    "3136": [
      {
        "length": 32,
        "start": 4478
      }
    ],
    "3138": [
      {
        "length": 32,
        "start": 4518
      }
    ],
    "3141": [
      {
        "length": 32,
        "start": 1995
      }
    ],
    "3144": [
      {
        "length": 32,
        "start": 2038
      }
    ]
  },
  "source": "// SPDX-License-Identifier: MIT\r\npragma solidity ^0.8.20;\r\n\r\nimport \"@openzeppelin/contracts/token/ERC20/ERC20.sol\";\r\nimport \"@openzeppelin/contracts/token/ERC20/extensions/ERC20Burnable.sol\";\r\nimport \"@openzeppelin/contracts/security/Pausable.sol\";\r\nimport \"@openzeppelin/contracts/access/Ownable.sol\";\r\nimport \"@openzeppelin/contracts/token/ERC20/extensions/ERC20Permit.sol\";\r\nimport \"@openzeppelin/contracts/token/ERC20/extensions/ERC20Votes.sol\";\r\n\r\ncontract AIZToken is ERC20, ERC20Burnable, Pausable, Ownable, ERC20Permit, ERC20Votes {\r\n    constructor(address initialOwner)\r\n        ERC20(\"AIZToken\", \"AIZ\")\r\n        ERC20Permit(\"AIZToken\")\r\n    {\r\n        _transferOwnership(initialOwner);\r\n    }\r\n\r\n    function pause() public onlyOwner {\r\n        _pause();\r\n    }\r\n\r\n    function unpause() public onlyOwner {\r\n        _unpause();\r\n    }\r\n\r\n    function mint(address to, uint256 amount) public onlyOwner {\r\n        _mint(to, amount);\r\n    }\r\n\r\n    function _beforeTokenTransfer(address from, address to, uint256 amount)\r\n        internal\r\n        whenNotPaused\r\n        override\r\n    {\r\n        super._beforeTokenTransfer(from, to, amount);\r\n    }\r\n\r\n    function _afterTokenTransfer(address from, address to, uint256 amount)\r\n        internal\r\n        override(ERC20, ERC20Votes)\r\n    {\r\n        super._afterTokenTransfer(from, to, amount);\r\n    }\r\n\r\n    function _mint(address to, uint256 amount)\r\n        internal\r\n        override(ERC20, ERC20Votes)\r\n    {\r\n        super._mint(to, amount);\r\n    }\r\n\r\n    function _burn(address account, uint256 amount)\r\n        internal\r\n        override(ERC20, ERC20Votes)\r\n    {\r\n        super._burn(account, amount);\r\n    }\r\n}",
  "sourcePath": "E:\\AI Zona\\AI Apps\\aizona\\aizona\\smart-contracts\\contracts\\AIZToken.sol",
  "compiler": {
    "name": "solc",
    "version": "0.8.20+commit.a1b79de6.Emscripten.clang"
  },
  "schemaVersion": "3.4.16",
  "updatedAt": "2024-08-20T19:44:33.032Z",
  "devdoc": {
    "events": {
      "Approval(address,address,uint256)": {
        "details": "Emitted when the allowance of a `spender` for an `owner` is set by a call to {approve}. `value` is the new allowance."
      },
      "DelegateChanged(address,address,address)": {
        "details": "Emitted when an account changes their delegate."
      },
      "DelegateVotesChanged(address,uint256,uint256)": {
        "details": "Emitted when a token transfer or delegate change results in changes to a delegate's number of votes."
      },
      "EIP712DomainChanged()": {
        "details": "MAY be emitted to signal that the domain could have changed."
      },
      "Paused(address)": {
        "details": "Emitted when the pause is triggered by `account`."
      },
      "Transfer(address,address,uint256)": {
        "details": "Emitted when `value` tokens are moved from one account (`from`) to another (`to`). Note that `value` may be zero."
      },
      "Unpaused(address)": {
        "details": "Emitted when the pause is lifted by `account`."
      }
    },
    "kind": "dev",
    "methods": {
      "CLOCK_MODE()": {
        "details": "Description of the clock"
      },
      "DOMAIN_SEPARATOR()": {
        "details": "Returns the domain separator used in the encoding of the signature for {permit}, as defined by {EIP712}."
      },
      "allowance(address,address)": {
        "details": "See {IERC20-allowance}."
      },
      "approve(address,uint256)": {
        "details": "See {IERC20-approve}. NOTE: If `amount` is the maximum `uint256`, the allowance is not updated on `transferFrom`. This is semantically equivalent to an infinite approval. Requirements: - `spender` cannot be the zero address."
      },
      "balanceOf(address)": {
        "details": "See {IERC20-balanceOf}."
      },
      "burn(uint256)": {
        "details": "Destroys `amount` tokens from the caller. See {ERC20-_burn}."
      },
      "burnFrom(address,uint256)": {
        "details": "Destroys `amount` tokens from `account`, deducting from the caller's allowance. See {ERC20-_burn} and {ERC20-allowance}. Requirements: - the caller must have allowance for ``accounts``'s tokens of at least `amount`."
      },
      "checkpoints(address,uint32)": {
        "details": "Get the `pos`-th checkpoint for `account`."
      },
      "clock()": {
        "details": "Clock used for flagging checkpoints. Can be overridden to implement timestamp based checkpoints (and voting)."
      },
      "decimals()": {
        "details": "Returns the number of decimals used to get its user representation. For example, if `decimals` equals `2`, a balance of `505` tokens should be displayed to a user as `5.05` (`505 / 10 ** 2`). Tokens usually opt for a value of 18, imitating the relationship between Ether and Wei. This is the default value returned by this function, unless it's overridden. NOTE: This information is only used for _display_ purposes: it in no way affects any of the arithmetic of the contract, including {IERC20-balanceOf} and {IERC20-transfer}."
      },
      "decreaseAllowance(address,uint256)": {
        "details": "Atomically decreases the allowance granted to `spender` by the caller. This is an alternative to {approve} that can be used as a mitigation for problems described in {IERC20-approve}. Emits an {Approval} event indicating the updated allowance. Requirements: - `spender` cannot be the zero address. - `spender` must have allowance for the caller of at least `subtractedValue`."
      },
      "delegate(address)": {
        "details": "Delegate votes from the sender to `delegatee`."
      },
      "delegateBySig(address,uint256,uint256,uint8,bytes32,bytes32)": {
        "details": "Delegates votes from signer to `delegatee`"
      },
      "delegates(address)": {
        "details": "Get the address `account` is currently delegating to."
      },
      "eip712Domain()": {
        "details": "See {EIP-5267}. _Available since v4.9._"
      },
      "getPastTotalSupply(uint256)": {
        "details": "Retrieve the `totalSupply` at the end of `timepoint`. Note, this value is the sum of all balances. It is NOT the sum of all the delegated votes! Requirements: - `timepoint` must be in the past"
      },
      "getPastVotes(address,uint256)": {
        "details": "Retrieve the number of votes for `account` at the end of `timepoint`. Requirements: - `timepoint` must be in the past"
      },
      "getVotes(address)": {
        "details": "Gets the current votes balance for `account`"
      },
      "increaseAllowance(address,uint256)": {
        "details": "Atomically increases the allowance granted to `spender` by the caller. This is an alternative to {approve} that can be used as a mitigation for problems described in {IERC20-approve}. Emits an {Approval} event indicating the updated allowance. Requirements: - `spender` cannot be the zero address."
      },
      "name()": {
        "details": "Returns the name of the token."
      },
      "nonces(address)": {
        "details": "Returns the current nonce for `owner`. This value must be included whenever a signature is generated for {permit}. Every successful call to {permit} increases ``owner``'s nonce by one. This prevents a signature from being used multiple times."
      },
      "numCheckpoints(address)": {
        "details": "Get number of checkpoints for `account`."
      },
      "owner()": {
        "details": "Returns the address of the current owner."
      },
      "paused()": {
        "details": "Returns true if the contract is paused, and false otherwise."
      },
      "permit(address,address,uint256,uint256,uint8,bytes32,bytes32)": {
        "details": "Sets `value` as the allowance of `spender` over ``owner``'s tokens, given ``owner``'s signed approval. IMPORTANT: The same issues {IERC20-approve} has related to transaction ordering also apply here. Emits an {Approval} event. Requirements: - `spender` cannot be the zero address. - `deadline` must be a timestamp in the future. - `v`, `r` and `s` must be a valid `secp256k1` signature from `owner` over the EIP712-formatted function arguments. - the signature must use ``owner``'s current nonce (see {nonces}). For more information on the signature format, see the https://eips.ethereum.org/EIPS/eip-2612#specification[relevant EIP section]. CAUTION: See Security Considerations above."
      },
      "renounceOwnership()": {
        "details": "Leaves the contract without owner. It will not be possible to call `onlyOwner` functions. Can only be called by the current owner. NOTE: Renouncing ownership will leave the contract without an owner, thereby disabling any functionality that is only available to the owner."
      },
      "symbol()": {
        "details": "Returns the symbol of the token, usually a shorter version of the name."
      },
      "totalSupply()": {
        "details": "See {IERC20-totalSupply}."
      },
      "transfer(address,uint256)": {
        "details": "See {IERC20-transfer}. Requirements: - `to` cannot be the zero address. - the caller must have a balance of at least `amount`."
      },
      "transferFrom(address,address,uint256)": {
        "details": "See {IERC20-transferFrom}. Emits an {Approval} event indicating the updated allowance. This is not required by the EIP. See the note at the beginning of {ERC20}. NOTE: Does not update the allowance if the current allowance is the maximum `uint256`. Requirements: - `from` and `to` cannot be the zero address. - `from` must have a balance of at least `amount`. - the caller must have allowance for ``from``'s tokens of at least `amount`."
      },
      "transferOwnership(address)": {
        "details": "Transfers ownership of the contract to a new account (`newOwner`). Can only be called by the current owner."
      }
    },
    "version": 1
  },
  "userdoc": {
    "kind": "user",
    "methods": {},
    "version": 1
  }
}