{
  "contractName": "ContributionReward",
  "abi": [
    {
      "inputs": [
        {
          "internalType": "address",
          "name": "initialOwner",
          "type": "address"
        },
        {
          "internalType": "contract IERC20",
          "name": "_rewardToken",
          "type": "address"
        }
      ],
      "stateMutability": "nonpayable",
      "type": "constructor"
    },
    {
      "anonymous": false,
      "inputs": [
        {
          "indexed": true,
          "internalType": "address",
          "name": "contributor",
          "type": "address"
        },
        {
          "indexed": false,
          "internalType": "uint256",
          "name": "amount",
          "type": "uint256"
        },
        {
          "indexed": false,
          "internalType": "uint256",
          "name": "timestamp",
          "type": "uint256"
        }
      ],
      "name": "ContributionAdded",
      "type": "event"
    },
    {
      "anonymous": false,
      "inputs": [
        {
          "indexed": false,
          "internalType": "uint256",
          "name": "newMin",
          "type": "uint256"
        },
        {
          "indexed": false,
          "internalType": "uint256",
          "name": "newMax",
          "type": "uint256"
        }
      ],
      "name": "ContributionLimitsUpdated",
      "type": "event"
    },
    {
      "anonymous": false,
      "inputs": [
        {
          "indexed": false,
          "internalType": "uint256",
          "name": "newPeriod",
          "type": "uint256"
        }
      ],
      "name": "CooldownPeriodUpdated",
      "type": "event"
    },
    {
      "anonymous": false,
      "inputs": [
        {
          "indexed": true,
          "internalType": "address",
          "name": "previousOwner",
          "type": "address"
        },
        {
          "indexed": true,
          "internalType": "address",
          "name": "newOwner",
          "type": "address"
        }
      ],
      "name": "OwnershipTransferred",
      "type": "event"
    },
    {
      "anonymous": false,
      "inputs": [
        {
          "indexed": true,
          "internalType": "address",
          "name": "contributor",
          "type": "address"
        },
        {
          "indexed": false,
          "internalType": "uint256",
          "name": "amount",
          "type": "uint256"
        }
      ],
      "name": "RewardClaimed",
      "type": "event"
    },
    {
      "anonymous": false,
      "inputs": [
        {
          "indexed": false,
          "internalType": "uint256",
          "name": "newRate",
          "type": "uint256"
        }
      ],
      "name": "RewardRateUpdated",
      "type": "event"
    },
    {
      "inputs": [
        {
          "internalType": "address",
          "name": "",
          "type": "address"
        },
        {
          "internalType": "uint256",
          "name": "",
          "type": "uint256"
        }
      ],
      "name": "contributions",
      "outputs": [
        {
          "internalType": "uint256",
          "name": "amount",
          "type": "uint256"
        },
        {
          "internalType": "uint256",
          "name": "timestamp",
          "type": "uint256"
        },
        {
          "internalType": "bool",
          "name": "rewarded",
          "type": "bool"
        }
      ],
      "stateMutability": "view",
      "type": "function"
    },
    {
      "inputs": [],
      "name": "cooldownPeriod",
      "outputs": [
        {
          "internalType": "uint256",
          "name": "",
          "type": "uint256"
        }
      ],
      "stateMutability": "view",
      "type": "function"
    },
    {
      "inputs": [],
      "name": "maxContributionAmount",
      "outputs": [
        {
          "internalType": "uint256",
          "name": "",
          "type": "uint256"
        }
      ],
      "stateMutability": "view",
      "type": "function"
    },
    {
      "inputs": [],
      "name": "minContributionAmount",
      "outputs": [
        {
          "internalType": "uint256",
          "name": "",
          "type": "uint256"
        }
      ],
      "stateMutability": "view",
      "type": "function"
    },
    {
      "inputs": [],
      "name": "owner",
      "outputs": [
        {
          "internalType": "address",
          "name": "",
          "type": "address"
        }
      ],
      "stateMutability": "view",
      "type": "function"
    },
    {
      "inputs": [],
      "name": "renounceOwnership",
      "outputs": [],
      "stateMutability": "nonpayable",
      "type": "function"
    },
    {
      "inputs": [],
      "name": "rewardRate",
      "outputs": [
        {
          "internalType": "uint256",
          "name": "",
          "type": "uint256"
        }
      ],
      "stateMutability": "view",
      "type": "function"
    },
    {
      "inputs": [],
      "name": "rewardToken",
      "outputs": [
        {
          "internalType": "contract IERC20",
          "name": "",
          "type": "address"
        }
      ],
      "stateMutability": "view",
      "type": "function"
    },
    {
      "inputs": [
        {
          "internalType": "address",
          "name": "",
          "type": "address"
        }
      ],
      "name": "totalRewards",
      "outputs": [
        {
          "internalType": "uint256",
          "name": "",
          "type": "uint256"
        }
      ],
      "stateMutability": "view",
      "type": "function"
    },
    {
      "inputs": [
        {
          "internalType": "address",
          "name": "newOwner",
          "type": "address"
        }
      ],
      "name": "transferOwnership",
      "outputs": [],
      "stateMutability": "nonpayable",
      "type": "function"
    },
    {
      "inputs": [
        {
          "internalType": "uint256",
          "name": "_amount",
          "type": "uint256"
        }
      ],
      "name": "addContribution",
      "outputs": [],
      "stateMutability": "nonpayable",
      "type": "function"
    },
    {
      "inputs": [],
      "name": "claimRewards",
      "outputs": [],
      "stateMutability": "nonpayable",
      "type": "function"
    },
    {
      "inputs": [
        {
          "internalType": "address",
          "name": "_contributor",
          "type": "address"
        }
      ],
      "name": "calculateRewards",
      "outputs": [
        {
          "internalType": "uint256",
          "name": "",
          "type": "uint256"
        }
      ],
      "stateMutability": "view",
      "type": "function"
    },
    {
      "inputs": [
        {
          "internalType": "uint256",
          "name": "_newRate",
          "type": "uint256"
        }
      ],
      "name": "setRewardRate",
      "outputs": [],
      "stateMutability": "nonpayable",
      "type": "function"
    },
    {
      "inputs": [
        {
          "internalType": "uint256",
          "name": "_newMin",
          "type": "uint256"
        },
        {
          "internalType": "uint256",
          "name": "_newMax",
          "type": "uint256"
        }
      ],
      "name": "setContributionLimits",
      "outputs": [],
      "stateMutability": "nonpayable",
      "type": "function"
    },
    {
      "inputs": [
        {
          "internalType": "uint256",
          "name": "_newPeriod",
          "type": "uint256"
        }
      ],
      "name": "setCooldownPeriod",
      "outputs": [],
      "stateMutability": "nonpayable",
      "type": "function"
    },
    {
      "inputs": [
        {
          "internalType": "address",
          "name": "_contributor",
          "type": "address"
        }
      ],
      "name": "getContributionsCount",
      "outputs": [
        {
          "internalType": "uint256",
          "name": "",
          "type": "uint256"
        }
      ],
      "stateMutability": "view",
      "type": "function"
    },
    {
      "inputs": [
        {
          "internalType": "uint256",
          "name": "_amount",
          "type": "uint256"
        }
      ],
      "name": "withdrawTokens",
      "outputs": [],
      "stateMutability": "nonpayable",
      "type": "function"
    }
  ],
  "bytecode": "0x60a060405234801561000f575f80fd5b50604051610e17380380610e1783398101604081905261002e916100bc565b61003733610056565b6001805561004482610056565b6001600160a01b0316608052506100f4565b5f80546001600160a01b038381166001600160a01b0319831681178455604051919092169283917f8be0079c531659141344cd1fd0a4f28419497f9722a3daafe3b4186f6b6457e09190a35050565b6001600160a01b03811681146100b9575f80fd5b50565b5f80604083850312156100cd575f80fd5b82516100d8816100a5565b60208401519092506100e9816100a5565b809150509250929050565b608051610cfd61011a5f395f81816102830152818161047101526106ac0152610cfd5ff3fe608060405234801561000f575f80fd5b5060043610610111575f3560e01c80637b0a47ee1161009e578063ab7573dd1161006e578063ab7573dd14610211578063c67e04d814610230578063caf9bf5814610243578063f2fde38b1461026b578063f7c618c11461027e575f80fd5b80637b0a47ee146101be57806380ea3de1146101c75780638da5cb5b146101da5780639e447fc6146101fe575f80fd5b8063372500ab116100e4578063372500ab1461016257806345d5149f1461016a578063550b521c1461017357806364ab8675146101a3578063715018a6146101b6575f80fd5b806304646a491461011557806319cc1ec41461013157806330d2c0d31461013a578063315a095d1461014f575b5f80fd5b61011e60075481565b6040519081526020015b60405180910390f35b61011e60065481565b61014d610148366004610b6c565b6102a5565b005b61014d61015d366004610b6c565b610467565b61014d610569565b61011e60055481565b610186610181366004610b9e565b6107a4565b604080519384526020840192909252151590820152606001610128565b61011e6101b1366004610bc6565b6107e5565b61014d6108c5565b61011e60045481565b61014d6101d5366004610b6c565b6108d6565b5f546001600160a01b03165b6040516001600160a01b039091168152602001610128565b61014d61020c366004610b6c565b61091a565b61011e61021f366004610bc6565b60036020525f908152604090205481565b61014d61023e366004610be6565b610957565b61011e610251366004610bc6565b6001600160a01b03165f9081526002602052604090205490565b61014d610279366004610bc6565b6109f5565b6101e67f000000000000000000000000000000000000000000000000000000000000000081565b6102ad610a6b565b60055481101580156102c157506006548111155b6103125760405162461bcd60e51b815260206004820181905260248201527f436f6e747269627574696f6e20616d6f756e74206f7574206f662072616e676560448201526064015b60405180910390fd5b335f9081526002602052604090205415806103755750600754335f908152600260205260409020805461034790600190610c1a565b8154811061035757610357610c33565b905f5260205f20906003020160010154426103729190610c1a565b10155b6103c15760405162461bcd60e51b815260206004820152601b60248201527f436f6f6c646f776e20706572696f64206e6f7420656c617073656400000000006044820152606401610309565b335f818152600260208181526040808420815160608101835287815242818501818152828501888152845460018082018755958a52988790209351600390990290930197885551928701929092555194909301805460ff1916941515949094179093558251858152908101919091527fd51536b687caf52ac0a4f7008c1ffecc1b0d746f5ef64803892f3cef5f45d460910160405180910390a261046460018055565b50565b61046f610ac4565b7f00000000000000000000000000000000000000000000000000000000000000006001600160a01b031663a9059cbb6104af5f546001600160a01b031690565b6040516001600160e01b031960e084901b1681526001600160a01b039091166004820152602481018490526044016020604051808303815f875af11580156104f9573d5f803e3d5ffd5b505050506040513d601f19601f8201168201806040525081019061051d9190610c47565b6104645760405162461bcd60e51b815260206004820152601760248201527f546f6b656e207769746864726177616c206661696c65640000000000000000006044820152606401610309565b610571610a6b565b5f61057b336107e5565b90505f81116105c25760405162461bcd60e51b81526020600482015260136024820152724e6f207265776172647320746f20636c61696d60681b6044820152606401610309565b5f5b335f9081526002602052604090205481101561066c57335f9081526002602052604090208054829081106105fa576105fa610c33565b5f91825260209091206002600390920201015460ff1661065a57335f9081526002602052604090208054600191908390811061063857610638610c33565b5f9182526020909120600390910201600201805460ff19169115159190911790555b8061066481610c66565b9150506105c4565b50335f908152600360205260408120805483929061068b908490610c7e565b909155505060405163a9059cbb60e01b8152336004820152602481018290527f00000000000000000000000000000000000000000000000000000000000000006001600160a01b03169063a9059cbb906044016020604051808303815f875af11580156106fa573d5f803e3d5ffd5b505050506040513d601f19601f8201168201806040525081019061071e9190610c47565b6107635760405162461bcd60e51b815260206004820152601660248201527514995dd85c99081d1c985b9cd9995c8819985a5b195960521b6044820152606401610309565b60405181815233907f106f923f993c2149d49b4255ff723acafa1f2d94393f561d3eda32ae348f72419060200160405180910390a2506107a260018055565b565b6002602052815f5260405f2081815481106107bd575f80fd5b5f91825260209091206003909102018054600182015460029092015490935090915060ff1683565b5f80805b6001600160a01b0384165f908152600260205260409020548110156108be576001600160a01b0384165f90815260026020526040902080548290811061083157610831610c33565b5f91825260209091206002600390920201015460ff166108ac576004546001600160a01b0385165f908152600260205260409020805460649291908490811061087c5761087c610c33565b905f5260205f2090600302015f01546108959190610c91565b61089f9190610ca8565b6108a99083610c7e565b91505b806108b681610c66565b9150506107e9565b5092915050565b6108cd610ac4565b6107a25f610b1d565b6108de610ac4565b60078190556040518181527f3b897fd6944545fcb6a5d5b058781d763169157f8559ca1a7f3276b981d09971906020015b60405180910390a150565b610922610ac4565b60048190556040518181527f41d466ebd06fb97e7786086ac8b69b7eb7da798592036251291d34e9791cde019060200161090f565b61095f610ac4565b8082106109ae5760405162461bcd60e51b815260206004820152601960248201527f4d696e206d757374206265206c657373207468616e206d6178000000000000006044820152606401610309565b6005829055600681905560408051838152602081018390527f33aa92491b46a02a93d5a2523a688c5bb3f0192474ba74d63d506220094099ff910160405180910390a15050565b6109fd610ac4565b6001600160a01b038116610a625760405162461bcd60e51b815260206004820152602660248201527f4f776e61626c653a206e6577206f776e657220697320746865207a65726f206160448201526564647265737360d01b6064820152608401610309565b61046481610b1d565b600260015403610abd5760405162461bcd60e51b815260206004820152601f60248201527f5265656e7472616e637947756172643a207265656e7472616e742063616c6c006044820152606401610309565b6002600155565b5f546001600160a01b031633146107a25760405162461bcd60e51b815260206004820181905260248201527f4f776e61626c653a2063616c6c6572206973206e6f7420746865206f776e65726044820152606401610309565b5f80546001600160a01b038381166001600160a01b0319831681178455604051919092169283917f8be0079c531659141344cd1fd0a4f28419497f9722a3daafe3b4186f6b6457e09190a35050565b5f60208284031215610b7c575f80fd5b5035919050565b80356001600160a01b0381168114610b99575f80fd5b919050565b5f8060408385031215610baf575f80fd5b610bb883610b83565b946020939093013593505050565b5f60208284031215610bd6575f80fd5b610bdf82610b83565b9392505050565b5f8060408385031215610bf7575f80fd5b50508035926020909101359150565b634e487b7160e01b5f52601160045260245ffd5b81810381811115610c2d57610c2d610c06565b92915050565b634e487b7160e01b5f52603260045260245ffd5b5f60208284031215610c57575f80fd5b81518015158114610bdf575f80fd5b5f60018201610c7757610c77610c06565b5060010190565b80820180821115610c2d57610c2d610c06565b8082028115828204841417610c2d57610c2d610c06565b5f82610cc257634e487b7160e01b5f52601260045260245ffd5b50049056fea264697066735822122017cc218cfa9b869dfd3fccf5329035c91c8b5231244780ccc303ba214febd7df64736f6c63430008140033",
  "immutableReferences": {
    "6649": [
      {
        "length": 32,
        "start": 643
      },
      {
        "length": 32,
        "start": 1137
      },
      {
        "length": 32,
        "start": 1708
      }
    ]
  },
  "source": "// SPDX-License-Identifier: MIT\r\npragma solidity ^0.8.20;\r\n\r\nimport \"@openzeppelin/contracts/token/ERC20/IERC20.sol\";\r\nimport \"@openzeppelin/contracts/access/Ownable.sol\";\r\nimport \"@openzeppelin/contracts/security/ReentrancyGuard.sol\";\r\n\r\ncontract ContributionReward is Ownable, ReentrancyGuard {\r\n    IERC20 public immutable rewardToken;\r\n    \r\n    struct Contribution {\r\n        uint256 amount;\r\n        uint256 timestamp;\r\n        bool rewarded;\r\n    }\r\n\r\n    mapping(address => Contribution[]) public contributions;\r\n    mapping(address => uint256) public totalRewards;\r\n\r\n    uint256 public rewardRate;\r\n    uint256 public minContributionAmount;\r\n    uint256 public maxContributionAmount;\r\n    uint256 public cooldownPeriod;\r\n\r\n    event ContributionAdded(address indexed contributor, uint256 amount, uint256 timestamp);\r\n    event RewardClaimed(address indexed contributor, uint256 amount);\r\n    event RewardRateUpdated(uint256 newRate);\r\n    event ContributionLimitsUpdated(uint256 newMin, uint256 newMax);\r\n    event CooldownPeriodUpdated(uint256 newPeriod);\r\n\r\n    constructor(address initialOwner, IERC20 _rewardToken) {\r\n        _transferOwnership(initialOwner);\r\n        rewardToken = _rewardToken;\r\n    }\r\n\r\n    function addContribution(uint256 _amount) external nonReentrant {\r\n        require(_amount >= minContributionAmount && _amount <= maxContributionAmount, \"Contribution amount out of range\");\r\n        require(contributions[msg.sender].length == 0 || \r\n                block.timestamp - contributions[msg.sender][contributions[msg.sender].length - 1].timestamp >= cooldownPeriod, \r\n                \"Cooldown period not elapsed\");\r\n\r\n        contributions[msg.sender].push(Contribution({\r\n            amount: _amount,\r\n            timestamp: block.timestamp,\r\n            rewarded: false\r\n        }));\r\n\r\n        emit ContributionAdded(msg.sender, _amount, block.timestamp);\r\n    }\r\n\r\n    function claimRewards() external nonReentrant {\r\n        uint256 reward = calculateRewards(msg.sender);\r\n        require(reward > 0, \"No rewards to claim\");\r\n\r\n        for (uint256 i = 0; i < contributions[msg.sender].length; i++) {\r\n            if (!contributions[msg.sender][i].rewarded) {\r\n                contributions[msg.sender][i].rewarded = true;\r\n            }\r\n        }\r\n\r\n        totalRewards[msg.sender] += reward;\r\n        require(rewardToken.transfer(msg.sender, reward), \"Reward transfer failed\");\r\n\r\n        emit RewardClaimed(msg.sender, reward);\r\n    }\r\n\r\n    function calculateRewards(address _contributor) public view returns (uint256) {\r\n        uint256 reward = 0;\r\n        for (uint256 i = 0; i < contributions[_contributor].length; i++) {\r\n            if (!contributions[_contributor][i].rewarded) {\r\n                reward += (contributions[_contributor][i].amount * rewardRate) / 100;\r\n            }\r\n        }\r\n        return reward;\r\n    }\r\n\r\n    function setRewardRate(uint256 _newRate) external onlyOwner {\r\n        rewardRate = _newRate;\r\n        emit RewardRateUpdated(_newRate);\r\n    }\r\n\r\n    function setContributionLimits(uint256 _newMin, uint256 _newMax) external onlyOwner {\r\n        require(_newMin < _newMax, \"Min must be less than max\");\r\n        minContributionAmount = _newMin;\r\n        maxContributionAmount = _newMax;\r\n        emit ContributionLimitsUpdated(_newMin, _newMax);\r\n    }\r\n\r\n    function setCooldownPeriod(uint256 _newPeriod) external onlyOwner {\r\n        cooldownPeriod = _newPeriod;\r\n        emit CooldownPeriodUpdated(_newPeriod);\r\n    }\r\n\r\n    function getContributionsCount(address _contributor) external view returns (uint256) {\r\n        return contributions[_contributor].length;\r\n    }\r\n\r\n    function withdrawTokens(uint256 _amount) external onlyOwner {\r\n        require(rewardToken.transfer(owner(), _amount), \"Token withdrawal failed\");\r\n    }\r\n}",
  "sourcePath": "E:\\AI Zona\\AI Apps\\aizona\\aizona\\smart-contracts\\contracts\\ContributionReward.sol",
  "compiler": {
    "name": "solc",
    "version": "0.8.20+commit.a1b79de6.Emscripten.clang"
  },
  "schemaVersion": "3.4.16",
  "updatedAt": "2024-08-20T19:44:33.042Z",
  "devdoc": {
    "kind": "dev",
    "methods": {
      "owner()": {
        "details": "Returns the address of the current owner."
      },
      "renounceOwnership()": {
        "details": "Leaves the contract without owner. It will not be possible to call `onlyOwner` functions. Can only be called by the current owner. NOTE: Renouncing ownership will leave the contract without an owner, thereby disabling any functionality that is only available to the owner."
      },
      "transferOwnership(address)": {
        "details": "Transfers ownership of the contract to a new account (`newOwner`). Can only be called by the current owner."
      }
    },
    "version": 1
  },
  "userdoc": {
    "kind": "user",
    "methods": {},
    "version": 1
  }
}