{
  "contractName": "GovernanceGenome",
  "abi": [
    {
      "inputs": [
        {
          "internalType": "address",
          "name": "initialOwner",
          "type": "address"
        }
      ],
      "stateMutability": "nonpayable",
      "type": "constructor"
    },
    {
      "anonymous": false,
      "inputs": [
        {
          "indexed": false,
          "internalType": "uint256",
          "name": "proposalThreshold",
          "type": "uint256"
        },
        {
          "indexed": false,
          "internalType": "uint256",
          "name": "quorumPercentage",
          "type": "uint256"
        },
        {
          "indexed": false,
          "internalType": "uint256",
          "name": "votingPeriod",
          "type": "uint256"
        },
        {
          "indexed": false,
          "internalType": "uint256",
          "name": "executionDelay",
          "type": "uint256"
        },
        {
          "indexed": false,
          "internalType": "uint256",
          "name": "votingWeight",
          "type": "uint256"
        }
      ],
      "name": "GovernanceParametersUpdated",
      "type": "event"
    },
    {
      "anonymous": false,
      "inputs": [
        {
          "indexed": true,
          "internalType": "address",
          "name": "previousOwner",
          "type": "address"
        },
        {
          "indexed": true,
          "internalType": "address",
          "name": "newOwner",
          "type": "address"
        }
      ],
      "name": "OwnershipTransferred",
      "type": "event"
    },
    {
      "inputs": [],
      "name": "owner",
      "outputs": [
        {
          "internalType": "address",
          "name": "",
          "type": "address"
        }
      ],
      "stateMutability": "view",
      "type": "function"
    },
    {
      "inputs": [],
      "name": "params",
      "outputs": [
        {
          "internalType": "uint256",
          "name": "proposalThreshold",
          "type": "uint256"
        },
        {
          "internalType": "uint256",
          "name": "quorumPercentage",
          "type": "uint256"
        },
        {
          "internalType": "uint256",
          "name": "votingPeriod",
          "type": "uint256"
        },
        {
          "internalType": "uint256",
          "name": "executionDelay",
          "type": "uint256"
        },
        {
          "internalType": "uint256",
          "name": "votingWeight",
          "type": "uint256"
        }
      ],
      "stateMutability": "view",
      "type": "function"
    },
    {
      "inputs": [],
      "name": "renounceOwnership",
      "outputs": [],
      "stateMutability": "nonpayable",
      "type": "function"
    },
    {
      "inputs": [
        {
          "internalType": "address",
          "name": "newOwner",
          "type": "address"
        }
      ],
      "name": "transferOwnership",
      "outputs": [],
      "stateMutability": "nonpayable",
      "type": "function"
    },
    {
      "inputs": [
        {
          "internalType": "uint256",
          "name": "_proposalThreshold",
          "type": "uint256"
        },
        {
          "internalType": "uint256",
          "name": "_quorumPercentage",
          "type": "uint256"
        },
        {
          "internalType": "uint256",
          "name": "_votingPeriod",
          "type": "uint256"
        },
        {
          "internalType": "uint256",
          "name": "_executionDelay",
          "type": "uint256"
        },
        {
          "internalType": "uint256",
          "name": "_votingWeight",
          "type": "uint256"
        }
      ],
      "name": "updateGovernanceParameters",
      "outputs": [],
      "stateMutability": "nonpayable",
      "type": "function"
    },
    {
      "inputs": [],
      "name": "getGovernanceParameters",
      "outputs": [
        {
          "components": [
            {
              "internalType": "uint256",
              "name": "proposalThreshold",
              "type": "uint256"
            },
            {
              "internalType": "uint256",
              "name": "quorumPercentage",
              "type": "uint256"
            },
            {
              "internalType": "uint256",
              "name": "votingPeriod",
              "type": "uint256"
            },
            {
              "internalType": "uint256",
              "name": "executionDelay",
              "type": "uint256"
            },
            {
              "internalType": "uint256",
              "name": "votingWeight",
              "type": "uint256"
            }
          ],
          "internalType": "struct GovernanceGenome.GovernanceParameters",
          "name": "",
          "type": "tuple"
        }
      ],
      "stateMutability": "view",
      "type": "function"
    },
    {
      "inputs": [
        {
          "internalType": "uint256",
          "name": "tokenBalance",
          "type": "uint256"
        }
      ],
      "name": "calculateVotingPower",
      "outputs": [
        {
          "internalType": "uint256",
          "name": "",
          "type": "uint256"
        }
      ],
      "stateMutability": "view",
      "type": "function"
    },
    {
      "inputs": [
        {
          "internalType": "uint256",
          "name": "proposerBalance",
          "type": "uint256"
        }
      ],
      "name": "isProposalValid",
      "outputs": [
        {
          "internalType": "bool",
          "name": "",
          "type": "bool"
        }
      ],
      "stateMutability": "view",
      "type": "function"
    },
    {
      "inputs": [
        {
          "internalType": "uint256",
          "name": "totalVotes",
          "type": "uint256"
        },
        {
          "internalType": "uint256",
          "name": "totalSupply",
          "type": "uint256"
        }
      ],
      "name": "hasReachedQuorum",
      "outputs": [
        {
          "internalType": "bool",
          "name": "",
          "type": "bool"
        }
      ],
      "stateMutability": "view",
      "type": "function"
    },
    {
      "inputs": [
        {
          "internalType": "uint256",
          "name": "proposalEndTime",
          "type": "uint256"
        }
      ],
      "name": "getExecutionTime",
      "outputs": [
        {
          "internalType": "uint256",
          "name": "",
          "type": "uint256"
        }
      ],
      "stateMutability": "view",
      "type": "function"
    }
  ],
  "bytecode": "0x608060405234801561000f575f80fd5b506040516106bf3803806106bf83398101604081905261002e91610095565b61003733610046565b61004081610046565b506100c2565b5f80546001600160a01b038381166001600160a01b0319831681178455604051919092169283917f8be0079c531659141344cd1fd0a4f28419497f9722a3daafe3b4186f6b6457e09190a35050565b5f602082840312156100a5575f80fd5b81516001600160a01b03811681146100bb575f80fd5b9392505050565b6105f0806100cf5f395ff3fe608060405234801561000f575f80fd5b506004361061009b575f3560e01c8063cff0ab9611610063578063cff0ab961461014a578063d8be3d431461018c578063e903831a146101ad578063f2fde38b146101c0578063f4c11515146101d3575f80fd5b806352d1d5771461009f5780635835cf30146100ca578063715018a6146101135780638da5cb5b1461011d578063cc45315714610137575b5f80fd5b6100b56100ad3660046104c2565b600154111590565b60405190151581526020015b60405180910390f35b6100d26101e6565b6040516100c191905f60a082019050825182526020830151602083015260408301516040830152606083015160608301526080830151608083015292915050565b61011b610248565b005b5f546040516001600160a01b0390911681526020016100c1565b61011b6101453660046104d9565b61025b565b600154600254600354600454600554610164949392919085565b604080519586526020860194909452928401919091526060830152608082015260a0016100c1565b61019f61019a3660046104c2565b61034d565b6040519081526020016100c1565b6100b56101bb366004610510565b610362565b61011b6101ce366004610530565b610385565b61019f6101e13660046104c2565b6103fe565b6102136040518060a001604052805f81526020015f81526020015f81526020015f81526020015f81525090565b506040805160a08101825260015481526002546020820152600354918101919091526004546060820152600554608082015290565b61025061041a565b6102595f610473565b565b61026361041a565b60648411156102b95760405162461bcd60e51b815260206004820181905260248201527f51756f72756d2070657263656e74616765206d757374206265203c3d2031303060448201526064015b60405180910390fd5b6040805160a0808201835287825260208083018890528284018790526060808401879052608093840186905260018a9055600289905560038890556004879055600586905584518a81529182018990529381018790529283018590529082018390527f9c247c8dfdbb1831a4a1f867196518af0d080feae3aa3ed70e35137192cedf3f910160405180910390a15050505050565b6004545f9061035c9083610571565b92915050565b6002545f906103719083610584565b61037c846064610584565b10159392505050565b61038d61041a565b6001600160a01b0381166103f25760405162461bcd60e51b815260206004820152602660248201527f4f776e61626c653a206e6577206f776e657220697320746865207a65726f206160448201526564647265737360d01b60648201526084016102b0565b6103fb81610473565b50565b6005545f906064906104109084610584565b61035c919061059b565b5f546001600160a01b031633146102595760405162461bcd60e51b815260206004820181905260248201527f4f776e61626c653a2063616c6c6572206973206e6f7420746865206f776e657260448201526064016102b0565b5f80546001600160a01b038381166001600160a01b0319831681178455604051919092169283917f8be0079c531659141344cd1fd0a4f28419497f9722a3daafe3b4186f6b6457e09190a35050565b5f602082840312156104d2575f80fd5b5035919050565b5f805f805f60a086880312156104ed575f80fd5b505083359560208501359550604085013594606081013594506080013592509050565b5f8060408385031215610521575f80fd5b50508035926020909101359150565b5f60208284031215610540575f80fd5b81356001600160a01b0381168114610556575f80fd5b9392505050565b634e487b7160e01b5f52601160045260245ffd5b8082018082111561035c5761035c61055d565b808202811582820484141761035c5761035c61055d565b5f826105b557634e487b7160e01b5f52601260045260245ffd5b50049056fea2646970667358221220badd90dbac658252060d37cd8369782288fc5fd26280005bc43397160e764f0164736f6c63430008140033",
  "immutableReferences": {},
  "source": "// SPDX-License-Identifier: MIT\r\npragma solidity ^0.8.20;\r\n\r\nimport \"@openzeppelin/contracts/access/Ownable.sol\";\r\n\r\ncontract GovernanceGenome is Ownable {\r\n    struct GovernanceParameters {\r\n        uint256 proposalThreshold;\r\n        uint256 quorumPercentage;\r\n        uint256 votingPeriod;\r\n        uint256 executionDelay;\r\n        uint256 votingWeight;\r\n    }\r\n\r\n    GovernanceParameters public params;\r\n\r\n    event GovernanceParametersUpdated(\r\n        uint256 proposalThreshold,\r\n        uint256 quorumPercentage,\r\n        uint256 votingPeriod,\r\n        uint256 executionDelay,\r\n        uint256 votingWeight\r\n    );\r\n\r\n    constructor(address initialOwner) {\r\n        _transferOwnership(initialOwner);\r\n        // Constructor logic here\r\n    }\r\n\r\n    function updateGovernanceParameters(\r\n        uint256 _proposalThreshold,\r\n        uint256 _quorumPercentage,\r\n        uint256 _votingPeriod,\r\n        uint256 _executionDelay,\r\n        uint256 _votingWeight\r\n    ) external onlyOwner {\r\n        require(_quorumPercentage <= 100, \"Quorum percentage must be <= 100\");\r\n        params = GovernanceParameters(\r\n            _proposalThreshold,\r\n            _quorumPercentage,\r\n            _votingPeriod,\r\n            _executionDelay,\r\n            _votingWeight\r\n        );\r\n        emit GovernanceParametersUpdated(\r\n            _proposalThreshold,\r\n            _quorumPercentage,\r\n            _votingPeriod,\r\n            _executionDelay,\r\n            _votingWeight\r\n        );\r\n    }\r\n\r\n    function getGovernanceParameters() external view returns (GovernanceParameters memory) {\r\n        return params;\r\n    }\r\n\r\n    function calculateVotingPower(uint256 tokenBalance) external view returns (uint256) {\r\n        return (tokenBalance * params.votingWeight) / 100;\r\n    }\r\n\r\n    function isProposalValid(uint256 proposerBalance) external view returns (bool) {\r\n        return proposerBalance >= params.proposalThreshold;\r\n    }\r\n\r\n    function hasReachedQuorum(uint256 totalVotes, uint256 totalSupply) external view returns (bool) {\r\n        return (totalVotes * 100) >= (totalSupply * params.quorumPercentage);\r\n    }\r\n\r\n    function getExecutionTime(uint256 proposalEndTime) external view returns (uint256) {\r\n        return proposalEndTime + params.executionDelay;\r\n    }\r\n}",
  "sourcePath": "E:\\AI Zona\\AI Apps\\aizona\\aizona\\smart-contracts\\contracts\\GovernanceGenome.sol",
  "compiler": {
    "name": "solc",
    "version": "0.8.20+commit.a1b79de6.Emscripten.clang"
  },
  "schemaVersion": "3.4.16",
  "updatedAt": "2024-08-20T19:44:33.045Z",
  "devdoc": {
    "kind": "dev",
    "methods": {
      "owner()": {
        "details": "Returns the address of the current owner."
      },
      "renounceOwnership()": {
        "details": "Leaves the contract without owner. It will not be possible to call `onlyOwner` functions. Can only be called by the current owner. NOTE: Renouncing ownership will leave the contract without an owner, thereby disabling any functionality that is only available to the owner."
      },
      "transferOwnership(address)": {
        "details": "Transfers ownership of the contract to a new account (`newOwner`). Can only be called by the current owner."
      }
    },
    "version": 1
  },
  "userdoc": {
    "kind": "user",
    "methods": {},
    "version": 1
  }
}