{
  "contractName": "MarketplaceGenome",
  "abi": [
    {
      "inputs": [
        {
          "internalType": "address",
          "name": "initialOwner",
          "type": "address"
        },
        {
          "internalType": "uint256",
          "name": "_listingFee",
          "type": "uint256"
        },
        {
          "internalType": "uint256",
          "name": "_transactionFee",
          "type": "uint256"
        },
        {
          "internalType": "uint256",
          "name": "_disputeResolutionTime",
          "type": "uint256"
        },
        {
          "internalType": "uint256",
          "name": "_minEscrowTime",
          "type": "uint256"
        },
        {
          "internalType": "uint256",
          "name": "_maxEscrowTime",
          "type": "uint256"
        },
        {
          "internalType": "address",
          "name": "_aizTokenAddress",
          "type": "address"
        }
      ],
      "stateMutability": "nonpayable",
      "type": "constructor"
    },
    {
      "anonymous": false,
      "inputs": [
        {
          "indexed": false,
          "internalType": "uint256",
          "name": "listingFee",
          "type": "uint256"
        },
        {
          "indexed": false,
          "internalType": "uint256",
          "name": "transactionFee",
          "type": "uint256"
        },
        {
          "indexed": false,
          "internalType": "uint256",
          "name": "disputeResolutionTime",
          "type": "uint256"
        },
        {
          "indexed": false,
          "internalType": "uint256",
          "name": "minEscrowTime",
          "type": "uint256"
        },
        {
          "indexed": false,
          "internalType": "uint256",
          "name": "maxEscrowTime",
          "type": "uint256"
        }
      ],
      "name": "MarketplaceParametersUpdated",
      "type": "event"
    },
    {
      "anonymous": false,
      "inputs": [
        {
          "indexed": true,
          "internalType": "address",
          "name": "previousOwner",
          "type": "address"
        },
        {
          "indexed": true,
          "internalType": "address",
          "name": "newOwner",
          "type": "address"
        }
      ],
      "name": "OwnershipTransferred",
      "type": "event"
    },
    {
      "anonymous": false,
      "inputs": [
        {
          "indexed": false,
          "internalType": "address",
          "name": "newTokenAddress",
          "type": "address"
        }
      ],
      "name": "TokenAddressUpdated",
      "type": "event"
    },
    {
      "inputs": [],
      "name": "aizToken",
      "outputs": [
        {
          "internalType": "contract IERC20",
          "name": "",
          "type": "address"
        }
      ],
      "stateMutability": "view",
      "type": "function"
    },
    {
      "inputs": [],
      "name": "owner",
      "outputs": [
        {
          "internalType": "address",
          "name": "",
          "type": "address"
        }
      ],
      "stateMutability": "view",
      "type": "function"
    },
    {
      "inputs": [],
      "name": "params",
      "outputs": [
        {
          "internalType": "uint256",
          "name": "listingFee",
          "type": "uint256"
        },
        {
          "internalType": "uint256",
          "name": "transactionFee",
          "type": "uint256"
        },
        {
          "internalType": "uint256",
          "name": "disputeResolutionTime",
          "type": "uint256"
        },
        {
          "internalType": "uint256",
          "name": "minEscrowTime",
          "type": "uint256"
        },
        {
          "internalType": "uint256",
          "name": "maxEscrowTime",
          "type": "uint256"
        }
      ],
      "stateMutability": "view",
      "type": "function"
    },
    {
      "inputs": [],
      "name": "renounceOwnership",
      "outputs": [],
      "stateMutability": "nonpayable",
      "type": "function"
    },
    {
      "inputs": [
        {
          "internalType": "address",
          "name": "newOwner",
          "type": "address"
        }
      ],
      "name": "transferOwnership",
      "outputs": [],
      "stateMutability": "nonpayable",
      "type": "function"
    },
    {
      "inputs": [
        {
          "internalType": "uint256",
          "name": "_listingFee",
          "type": "uint256"
        },
        {
          "internalType": "uint256",
          "name": "_transactionFee",
          "type": "uint256"
        },
        {
          "internalType": "uint256",
          "name": "_disputeResolutionTime",
          "type": "uint256"
        },
        {
          "internalType": "uint256",
          "name": "_minEscrowTime",
          "type": "uint256"
        },
        {
          "internalType": "uint256",
          "name": "_maxEscrowTime",
          "type": "uint256"
        }
      ],
      "name": "updateMarketplaceParameters",
      "outputs": [],
      "stateMutability": "nonpayable",
      "type": "function"
    },
    {
      "inputs": [
        {
          "internalType": "address",
          "name": "_newTokenAddress",
          "type": "address"
        }
      ],
      "name": "updateTokenAddress",
      "outputs": [],
      "stateMutability": "nonpayable",
      "type": "function"
    },
    {
      "inputs": [],
      "name": "getMarketplaceParameters",
      "outputs": [
        {
          "components": [
            {
              "internalType": "uint256",
              "name": "listingFee",
              "type": "uint256"
            },
            {
              "internalType": "uint256",
              "name": "transactionFee",
              "type": "uint256"
            },
            {
              "internalType": "uint256",
              "name": "disputeResolutionTime",
              "type": "uint256"
            },
            {
              "internalType": "uint256",
              "name": "minEscrowTime",
              "type": "uint256"
            },
            {
              "internalType": "uint256",
              "name": "maxEscrowTime",
              "type": "uint256"
            }
          ],
          "internalType": "struct MarketplaceGenome.MarketplaceParameters",
          "name": "",
          "type": "tuple"
        }
      ],
      "stateMutability": "view",
      "type": "function"
    },
    {
      "inputs": [],
      "name": "calculateListingFee",
      "outputs": [
        {
          "internalType": "uint256",
          "name": "",
          "type": "uint256"
        }
      ],
      "stateMutability": "view",
      "type": "function"
    },
    {
      "inputs": [
        {
          "internalType": "uint256",
          "name": "amount",
          "type": "uint256"
        }
      ],
      "name": "calculateTransactionFee",
      "outputs": [
        {
          "internalType": "uint256",
          "name": "",
          "type": "uint256"
        }
      ],
      "stateMutability": "view",
      "type": "function"
    },
    {
      "inputs": [
        {
          "internalType": "uint256",
          "name": "escrowTime",
          "type": "uint256"
        }
      ],
      "name": "isEscrowTimeValid",
      "outputs": [
        {
          "internalType": "bool",
          "name": "",
          "type": "bool"
        }
      ],
      "stateMutability": "view",
      "type": "function"
    },
    {
      "inputs": [
        {
          "internalType": "uint256",
          "name": "transactionTime",
          "type": "uint256"
        }
      ],
      "name": "getDisputeResolutionDeadline",
      "outputs": [
        {
          "internalType": "uint256",
          "name": "",
          "type": "uint256"
        }
      ],
      "stateMutability": "view",
      "type": "function"
    },
    {
      "inputs": [
        {
          "internalType": "uint256",
          "name": "amount",
          "type": "uint256"
        }
      ],
      "name": "withdrawFees",
      "outputs": [],
      "stateMutability": "nonpayable",
      "type": "function"
    }
  ],
  "bytecode": "0x608060405234801561000f575f80fd5b50604051610a6d380380610a6d83398101604081905261002e916101ce565b61003733610164565b61004087610164565b6103e88511156100975760405162461bcd60e51b815260206004820152601e60248201527f5472616e73616374696f6e20666565206d757374206265203c3d20313025000060448201526064015b60405180910390fd5b8183106101005760405162461bcd60e51b815260206004820152603160248201527f4d696e20657363726f772074696d65206d757374206265206c657373207468616044820152706e206d617820657363726f772074696d6560781b606482015260840161008e565b6040805160a0810182528781526020810187905290810185905260608101849052608001829052600195909555600293909355600391909155600455600555600680546001600160a01b0319166001600160a01b039092169190911790555061022c565b5f80546001600160a01b038381166001600160a01b0319831681178455604051919092169283917f8be0079c531659141344cd1fd0a4f28419497f9722a3daafe3b4186f6b6457e09190a35050565b80516001600160a01b03811681146101c9575f80fd5b919050565b5f805f805f805f60e0888a0312156101e4575f80fd5b6101ed886101b3565b96506020880151955060408801519450606088015193506080880151925060a0880151915061021e60c089016101b3565b905092959891949750929550565b610834806102395f395ff3fe608060405234801561000f575f80fd5b50600436106100cb575f3560e01c806390f6128311610088578063cff0ab9611610063578063cff0ab96146101cc578063d223521d1461020e578063eca9bd0514610221578063f2fde38b14610234575f80fd5b806390f6128314610194578063b8960fd8146101a6578063bf043b3b146101b9575f80fd5b8063381a2cd0146100cf5780635e318e07146100f75780636691461a1461010c578063715018a61461011f5780637dbf8e55146101275780638da5cb5b14610170575b5f80fd5b6100e26100dd366004610707565b610247565b60405190151581526020015b60405180910390f35b61010a610105366004610707565b610263565b005b61010a61011a36600461071e565b610347565b61010a6103f1565b61012f610404565b6040516100ee91905f60a082019050825182526020830151602083015260408301516040830152606083015160608301526080830151608083015292915050565b5f546001600160a01b03165b6040516001600160a01b0390911681526020016100ee565b6001545b6040519081526020016100ee565b60065461017c906001600160a01b031681565b6101986101c7366004610707565b610466565b6001546002546003546004546005546101e6949392919085565b604080519586526020860194909452928401919091526060830152608082015260a0016100ee565b61019861021c366004610707565b610475565b61010a61022f36600461074b565b610492565b61010a61024236600461071e565b6105e9565b6004545f90821080159061025d57506005548211155b92915050565b61026b61065f565b6006546001600160a01b031663a9059cbb61028d5f546001600160a01b031690565b6040516001600160e01b031960e084901b1681526001600160a01b039091166004820152602481018490526044016020604051808303815f875af11580156102d7573d5f803e3d5ffd5b505050506040513d601f19601f820116820180604052508101906102fb9190610782565b6103445760405162461bcd60e51b8152602060048201526015602482015274119959481dda5d1a191c985dd85b0819985a5b1959605a1b60448201526064015b60405180910390fd5b50565b61034f61065f565b6001600160a01b03811661039d5760405162461bcd60e51b8152602060048201526015602482015274496e76616c696420746f6b656e206164647265737360581b604482015260640161033b565b600680546001600160a01b0319166001600160a01b0383169081179091556040519081527f2f0c7f17be551d1f4566672cd67adbe50173e96632f56ff80d80acc4ac00f3289060200160405180910390a150565b6103f961065f565b6104025f6106b8565b565b6104316040518060a001604052805f81526020015f81526020015f81526020015f81526020015f81525090565b506040805160a08101825260015481526002546020820152600354918101919091526004546060820152600554608082015290565b6003545f9061025d90836107b5565b6002545f906127109061048890846107c8565b61025d91906107df565b61049a61065f565b6103e88411156104ec5760405162461bcd60e51b815260206004820152601e60248201527f5472616e73616374696f6e20666565206d757374206265203c3d203130250000604482015260640161033b565b8082106105555760405162461bcd60e51b815260206004820152603160248201527f4d696e20657363726f772074696d65206d757374206265206c657373207468616044820152706e206d617820657363726f772074696d6560781b606482015260840161033b565b6040805160a0808201835287825260208083018890528284018790526060808401879052608093840186905260018a9055600289905560038890556004879055600586905584518a81529182018990529381018790529283018590529082018390527f93ed8d238f646898a4244d9ece4559831b34c1e37e1045d7ff6ac71ebbc29876910160405180910390a15050505050565b6105f161065f565b6001600160a01b0381166106565760405162461bcd60e51b815260206004820152602660248201527f4f776e61626c653a206e6577206f776e657220697320746865207a65726f206160448201526564647265737360d01b606482015260840161033b565b610344816106b8565b5f546001600160a01b031633146104025760405162461bcd60e51b815260206004820181905260248201527f4f776e61626c653a2063616c6c6572206973206e6f7420746865206f776e6572604482015260640161033b565b5f80546001600160a01b038381166001600160a01b0319831681178455604051919092169283917f8be0079c531659141344cd1fd0a4f28419497f9722a3daafe3b4186f6b6457e09190a35050565b5f60208284031215610717575f80fd5b5035919050565b5f6020828403121561072e575f80fd5b81356001600160a01b0381168114610744575f80fd5b9392505050565b5f805f805f60a0868803121561075f575f80fd5b505083359560208501359550604085013594606081013594506080013592509050565b5f60208284031215610792575f80fd5b81518015158114610744575f80fd5b634e487b7160e01b5f52601160045260245ffd5b8082018082111561025d5761025d6107a1565b808202811582820484141761025d5761025d6107a1565b5f826107f957634e487b7160e01b5f52601260045260245ffd5b50049056fea2646970667358221220d20b0077e9e44336f2634f79c1d09134a2b5a812b8df18991038d4564a088fc964736f6c63430008140033",
  "immutableReferences": {},
  "source": "// SPDX-License-Identifier: MIT\r\npragma solidity ^0.8.20;\r\n\r\nimport \"@openzeppelin/contracts/access/Ownable.sol\";\r\nimport \"@openzeppelin/contracts/token/ERC20/IERC20.sol\";\r\n\r\ncontract MarketplaceGenome is Ownable {\r\n    struct MarketplaceParameters {\r\n        uint256 listingFee;\r\n        uint256 transactionFee;\r\n        uint256 disputeResolutionTime;\r\n        uint256 minEscrowTime;\r\n        uint256 maxEscrowTime;\r\n    }\r\n\r\n    MarketplaceParameters public params;\r\n    IERC20 public aizToken;\r\n\r\n    event MarketplaceParametersUpdated(\r\n        uint256 listingFee,\r\n        uint256 transactionFee,\r\n        uint256 disputeResolutionTime,\r\n        uint256 minEscrowTime,\r\n        uint256 maxEscrowTime\r\n    );\r\n\r\n    event TokenAddressUpdated(address newTokenAddress);\r\n\r\n    constructor(\r\n        address initialOwner,\r\n        uint256 _listingFee,\r\n        uint256 _transactionFee,\r\n        uint256 _disputeResolutionTime,\r\n        uint256 _minEscrowTime,\r\n        uint256 _maxEscrowTime,\r\n        address _aizTokenAddress\r\n    ) {\r\n        _transferOwnership(initialOwner);\r\n        require(_transactionFee <= 1000, \"Transaction fee must be <= 10%\");\r\n        require(_minEscrowTime < _maxEscrowTime, \"Min escrow time must be less than max escrow time\");\r\n        \r\n        params = MarketplaceParameters(\r\n            _listingFee,\r\n            _transactionFee,\r\n            _disputeResolutionTime,\r\n            _minEscrowTime,\r\n            _maxEscrowTime\r\n        );\r\n        aizToken = IERC20(_aizTokenAddress);\r\n    }\r\n\r\n    function updateMarketplaceParameters(\r\n        uint256 _listingFee,\r\n        uint256 _transactionFee,\r\n        uint256 _disputeResolutionTime,\r\n        uint256 _minEscrowTime,\r\n        uint256 _maxEscrowTime\r\n    ) external onlyOwner {\r\n        require(_transactionFee <= 1000, \"Transaction fee must be <= 10%\");\r\n        require(_minEscrowTime < _maxEscrowTime, \"Min escrow time must be less than max escrow time\");\r\n        \r\n        params = MarketplaceParameters(\r\n            _listingFee,\r\n            _transactionFee,\r\n            _disputeResolutionTime,\r\n            _minEscrowTime,\r\n            _maxEscrowTime\r\n        );\r\n        emit MarketplaceParametersUpdated(\r\n            _listingFee,\r\n            _transactionFee,\r\n            _disputeResolutionTime,\r\n            _minEscrowTime,\r\n            _maxEscrowTime\r\n        );\r\n    }\r\n\r\n    function updateTokenAddress(address _newTokenAddress) external onlyOwner {\r\n        require(_newTokenAddress != address(0), \"Invalid token address\");\r\n        aizToken = IERC20(_newTokenAddress);\r\n        emit TokenAddressUpdated(_newTokenAddress);\r\n    }\r\n\r\n    function getMarketplaceParameters() external view returns (MarketplaceParameters memory) {\r\n        return params;\r\n    }\r\n\r\n    function calculateListingFee() external view returns (uint256) {\r\n        return params.listingFee;\r\n    }\r\n\r\n    function calculateTransactionFee(uint256 amount) external view returns (uint256) {\r\n        return (amount * params.transactionFee) / 10000;\r\n    }\r\n\r\n    function isEscrowTimeValid(uint256 escrowTime) external view returns (bool) {\r\n        return escrowTime >= params.minEscrowTime && escrowTime <= params.maxEscrowTime;\r\n    }\r\n\r\n    function getDisputeResolutionDeadline(uint256 transactionTime) external view returns (uint256) {\r\n        return transactionTime + params.disputeResolutionTime;\r\n    }\r\n\r\n    function withdrawFees(uint256 amount) external onlyOwner {\r\n        require(aizToken.transfer(owner(), amount), \"Fee withdrawal failed\");\r\n    }\r\n}",
  "sourcePath": "E:\\AI Zona\\AI Apps\\aizona\\aizona\\smart-contracts\\contracts\\MarketplaceGenome.sol",
  "compiler": {
    "name": "solc",
    "version": "0.8.20+commit.a1b79de6.Emscripten.clang"
  },
  "schemaVersion": "3.4.16",
  "updatedAt": "2024-08-20T19:44:33.048Z",
  "devdoc": {
    "kind": "dev",
    "methods": {
      "owner()": {
        "details": "Returns the address of the current owner."
      },
      "renounceOwnership()": {
        "details": "Leaves the contract without owner. It will not be possible to call `onlyOwner` functions. Can only be called by the current owner. NOTE: Renouncing ownership will leave the contract without an owner, thereby disabling any functionality that is only available to the owner."
      },
      "transferOwnership(address)": {
        "details": "Transfers ownership of the contract to a new account (`newOwner`). Can only be called by the current owner."
      }
    },
    "version": 1
  },
  "userdoc": {
    "kind": "user",
    "methods": {},
    "version": 1
  }
}