{
  "contractName": "ReputationGenome",
  "abi": [
    {
      "inputs": [
        {
          "internalType": "address",
          "name": "initialOwner",
          "type": "address"
        },
        {
          "internalType": "uint256",
          "name": "_initialReputation",
          "type": "uint256"
        },
        {
          "internalType": "uint256",
          "name": "_maxReputation",
          "type": "uint256"
        },
        {
          "internalType": "uint256",
          "name": "_minReputation",
          "type": "uint256"
        },
        {
          "internalType": "uint256",
          "name": "_positiveActionImpact",
          "type": "uint256"
        },
        {
          "internalType": "uint256",
          "name": "_negativeActionImpact",
          "type": "uint256"
        },
        {
          "internalType": "uint256",
          "name": "_decayRate",
          "type": "uint256"
        },
        {
          "internalType": "uint256",
          "name": "_decayPeriod",
          "type": "uint256"
        }
      ],
      "stateMutability": "nonpayable",
      "type": "constructor"
    },
    {
      "anonymous": false,
      "inputs": [
        {
          "indexed": true,
          "internalType": "address",
          "name": "previousOwner",
          "type": "address"
        },
        {
          "indexed": true,
          "internalType": "address",
          "name": "newOwner",
          "type": "address"
        }
      ],
      "name": "OwnershipTransferred",
      "type": "event"
    },
    {
      "anonymous": false,
      "inputs": [
        {
          "indexed": false,
          "internalType": "uint256",
          "name": "initialReputation",
          "type": "uint256"
        },
        {
          "indexed": false,
          "internalType": "uint256",
          "name": "maxReputation",
          "type": "uint256"
        },
        {
          "indexed": false,
          "internalType": "uint256",
          "name": "minReputation",
          "type": "uint256"
        },
        {
          "indexed": false,
          "internalType": "uint256",
          "name": "positiveActionImpact",
          "type": "uint256"
        },
        {
          "indexed": false,
          "internalType": "uint256",
          "name": "negativeActionImpact",
          "type": "uint256"
        },
        {
          "indexed": false,
          "internalType": "uint256",
          "name": "decayRate",
          "type": "uint256"
        },
        {
          "indexed": false,
          "internalType": "uint256",
          "name": "decayPeriod",
          "type": "uint256"
        }
      ],
      "name": "ReputationParametersUpdated",
      "type": "event"
    },
    {
      "anonymous": false,
      "inputs": [
        {
          "indexed": true,
          "internalType": "address",
          "name": "user",
          "type": "address"
        },
        {
          "indexed": false,
          "internalType": "uint256",
          "name": "newScore",
          "type": "uint256"
        }
      ],
      "name": "ReputationUpdated",
      "type": "event"
    },
    {
      "inputs": [
        {
          "internalType": "address",
          "name": "",
          "type": "address"
        }
      ],
      "name": "lastUpdateTime",
      "outputs": [
        {
          "internalType": "uint256",
          "name": "",
          "type": "uint256"
        }
      ],
      "stateMutability": "view",
      "type": "function"
    },
    {
      "inputs": [],
      "name": "owner",
      "outputs": [
        {
          "internalType": "address",
          "name": "",
          "type": "address"
        }
      ],
      "stateMutability": "view",
      "type": "function"
    },
    {
      "inputs": [],
      "name": "params",
      "outputs": [
        {
          "internalType": "uint256",
          "name": "initialReputation",
          "type": "uint256"
        },
        {
          "internalType": "uint256",
          "name": "maxReputation",
          "type": "uint256"
        },
        {
          "internalType": "uint256",
          "name": "minReputation",
          "type": "uint256"
        },
        {
          "internalType": "uint256",
          "name": "positiveActionImpact",
          "type": "uint256"
        },
        {
          "internalType": "uint256",
          "name": "negativeActionImpact",
          "type": "uint256"
        },
        {
          "internalType": "uint256",
          "name": "decayRate",
          "type": "uint256"
        },
        {
          "internalType": "uint256",
          "name": "decayPeriod",
          "type": "uint256"
        }
      ],
      "stateMutability": "view",
      "type": "function"
    },
    {
      "inputs": [],
      "name": "renounceOwnership",
      "outputs": [],
      "stateMutability": "nonpayable",
      "type": "function"
    },
    {
      "inputs": [
        {
          "internalType": "address",
          "name": "",
          "type": "address"
        }
      ],
      "name": "reputationScores",
      "outputs": [
        {
          "internalType": "uint256",
          "name": "",
          "type": "uint256"
        }
      ],
      "stateMutability": "view",
      "type": "function"
    },
    {
      "inputs": [
        {
          "internalType": "address",
          "name": "newOwner",
          "type": "address"
        }
      ],
      "name": "transferOwnership",
      "outputs": [],
      "stateMutability": "nonpayable",
      "type": "function"
    },
    {
      "inputs": [
        {
          "internalType": "uint256",
          "name": "_initialReputation",
          "type": "uint256"
        },
        {
          "internalType": "uint256",
          "name": "_maxReputation",
          "type": "uint256"
        },
        {
          "internalType": "uint256",
          "name": "_minReputation",
          "type": "uint256"
        },
        {
          "internalType": "uint256",
          "name": "_positiveActionImpact",
          "type": "uint256"
        },
        {
          "internalType": "uint256",
          "name": "_negativeActionImpact",
          "type": "uint256"
        },
        {
          "internalType": "uint256",
          "name": "_decayRate",
          "type": "uint256"
        },
        {
          "internalType": "uint256",
          "name": "_decayPeriod",
          "type": "uint256"
        }
      ],
      "name": "updateReputationParameters",
      "outputs": [],
      "stateMutability": "nonpayable",
      "type": "function"
    },
    {
      "inputs": [],
      "name": "getReputationParameters",
      "outputs": [
        {
          "components": [
            {
              "internalType": "uint256",
              "name": "initialReputation",
              "type": "uint256"
            },
            {
              "internalType": "uint256",
              "name": "maxReputation",
              "type": "uint256"
            },
            {
              "internalType": "uint256",
              "name": "minReputation",
              "type": "uint256"
            },
            {
              "internalType": "uint256",
              "name": "positiveActionImpact",
              "type": "uint256"
            },
            {
              "internalType": "uint256",
              "name": "negativeActionImpact",
              "type": "uint256"
            },
            {
              "internalType": "uint256",
              "name": "decayRate",
              "type": "uint256"
            },
            {
              "internalType": "uint256",
              "name": "decayPeriod",
              "type": "uint256"
            }
          ],
          "internalType": "struct ReputationGenome.ReputationParameters",
          "name": "",
          "type": "tuple"
        }
      ],
      "stateMutability": "view",
      "type": "function"
    },
    {
      "inputs": [
        {
          "internalType": "address",
          "name": "user",
          "type": "address"
        }
      ],
      "name": "getReputation",
      "outputs": [
        {
          "internalType": "uint256",
          "name": "",
          "type": "uint256"
        }
      ],
      "stateMutability": "view",
      "type": "function"
    },
    {
      "inputs": [
        {
          "internalType": "address",
          "name": "user",
          "type": "address"
        },
        {
          "internalType": "bool",
          "name": "isPositive",
          "type": "bool"
        }
      ],
      "name": "updateReputation",
      "outputs": [],
      "stateMutability": "nonpayable",
      "type": "function"
    },
    {
      "inputs": [
        {
          "internalType": "address",
          "name": "user",
          "type": "address"
        }
      ],
      "name": "initializeReputation",
      "outputs": [],
      "stateMutability": "nonpayable",
      "type": "function"
    },
    {
      "inputs": [
        {
          "internalType": "address",
          "name": "user",
          "type": "address"
        },
        {
          "internalType": "uint256",
          "name": "threshold",
          "type": "uint256"
        }
      ],
      "name": "isReputableUser",
      "outputs": [
        {
          "internalType": "bool",
          "name": "",
          "type": "bool"
        }
      ],
      "stateMutability": "view",
      "type": "function"
    }
  ],
  "bytecode": "0x608060405234801561000f575f80fd5b50604051610ad7380380610ad783398101604081905261002e91610146565b610037336100f7565b610040886100f7565b868510801561004e57508587105b61009e5760405162461bcd60e51b815260206004820152601860248201527f496e76616c69642072657075746174696f6e2072616e67650000000000000000604482015260640160405180910390fd5b6040805160e08101825288815260208101889052908101869052606081018590526080810184905260a0810183905260c001819052600196909655600294909455600392909255600455600555600655600755506101b6565b5f80546001600160a01b038381166001600160a01b0319831681178455604051919092169283917f8be0079c531659141344cd1fd0a4f28419497f9722a3daafe3b4186f6b6457e09190a35050565b5f805f805f805f80610100898b03121561015e575f80fd5b88516001600160a01b0381168114610174575f80fd5b809850506020890151965060408901519550606089015194506080890151935060a0890151925060c0890151915060e089015190509295985092959890939650565b610914806101c35f395ff3fe608060405234801561000f575f80fd5b50600436106100b1575f3560e01c8063ce8e5e331161006e578063ce8e5e3314610144578063cff0ab9614610167578063e2c13e32146101be578063e4c22de0146101d1578063f2fde38b1461022e578063fe0438b214610241575f80fd5b80632ce9aead146100b5578063715018a6146100e75780637bb27c11146100f15780638da5cb5b146101045780639c89a0e21461011e578063c00b80d314610131575b5f80fd5b6100d46100c33660046107a6565b60096020525f908152604090205481565b6040519081526020015b60405180910390f35b6100ef610260565b005b6100ef6100ff3660046107a6565b610273565b5f546040516001600160a01b0390911681526020016100de565b6100d461012c3660046107a6565b610348565b6100ef61013f3660046107c6565b6103f5565b61015761015236600461080d565b610512565b60405190151581526020016100de565b6001546002546003546004546005546006546007546101899695949392919087565b604080519788526020880196909652948601939093526060850191909152608084015260a083015260c082015260e0016100de565b6100ef6101cc366004610835565b610528565b6101d96105ec565b6040516100de91905f60e082019050825182526020830151602083015260408301516040830152606083015160608301526080830151608083015260a083015160a083015260c083015160c083015292915050565b6100ef61023c3660046107a6565b61066a565b6100d461024f3660046107a6565b60086020525f908152604090205481565b6102686106e3565b6102715f61073c565b565b61027b6106e3565b6001600160a01b0381165f90815260086020526040902054156102e55760405162461bcd60e51b815260206004820152601e60248201527f52657075746174696f6e20616c726561647920696e697469616c697a6564000060448201526064015b60405180910390fd5b600180546001600160a01b0383165f81815260086020908152604080832094909455600981529083902042905592549151918252917ffc577563f1b9a0461e24abef1e1fcc0d33d3d881f20b5df6dda59de4aae2c821910160405180910390a250565b6001600160a01b0381165f90815260086020526040812054810361036e57505060015490565b6001600160a01b0382165f908152600960205260408120546103909042610882565b6007549091505f906103a29083610895565b6006549091505f906103b490836108b4565b6001600160a01b0386165f908152600860205260409020546103d69190610882565b60035490915081116103ea576003546103ec565b805b95945050505050565b6103fd6106e3565b868510801561040b57508587105b6104575760405162461bcd60e51b815260206004820152601860248201527f496e76616c69642072657075746174696f6e2072616e6765000000000000000060448201526064016102dc565b6040805160e0808201835289825260208083018a90528284018990526060808401899052608080850189905260a080860189905260c095860188905260018e905560028d905560038c905560048b905560058a90556006899055600788905586518e81529384018d90529583018b905290820189905281018790529283018590529082018390527fc8057fb7a7c930ab8b4dae5f428cfeb9f2e48846ca7b5eb9cb38d14a0400bc0f910160405180910390a150505050505050565b5f8161051d84610348565b101590505b92915050565b6105306106e3565b5f61053a83610348565b90505f821561056d5760045461055090836108cb565b60025490915081116105625780610566565b6002545b905061058e565b600554821161057e5760035461058b565b60055461058b9083610882565b90505b6001600160a01b0384165f818152600860209081526040808320859055600982529182902042905590518381527ffc577563f1b9a0461e24abef1e1fcc0d33d3d881f20b5df6dda59de4aae2c821910160405180910390a250505050565b6106256040518060e001604052805f81526020015f81526020015f81526020015f81526020015f81526020015f81526020015f81525090565b506040805160e08101825260015481526002546020820152600354918101919091526004546060820152600554608082015260065460a082015260075460c082015290565b6106726106e3565b6001600160a01b0381166106d75760405162461bcd60e51b815260206004820152602660248201527f4f776e61626c653a206e6577206f776e657220697320746865207a65726f206160448201526564647265737360d01b60648201526084016102dc565b6106e08161073c565b50565b5f546001600160a01b031633146102715760405162461bcd60e51b815260206004820181905260248201527f4f776e61626c653a2063616c6c6572206973206e6f7420746865206f776e657260448201526064016102dc565b5f80546001600160a01b038381166001600160a01b0319831681178455604051919092169283917f8be0079c531659141344cd1fd0a4f28419497f9722a3daafe3b4186f6b6457e09190a35050565b80356001600160a01b03811681146107a1575f80fd5b919050565b5f602082840312156107b6575f80fd5b6107bf8261078b565b9392505050565b5f805f805f805f60e0888a0312156107dc575f80fd5b505085359760208701359750604087013596606081013596506080810135955060a0810135945060c0013592509050565b5f806040838503121561081e575f80fd5b6108278361078b565b946020939093013593505050565b5f8060408385031215610846575f80fd5b61084f8361078b565b915060208301358015158114610863575f80fd5b809150509250929050565b634e487b7160e01b5f52601160045260245ffd5b818103818111156105225761052261086e565b5f826108af57634e487b7160e01b5f52601260045260245ffd5b500490565b80820281158282048414176105225761052261086e565b808201808211156105225761052261086e56fea26469706673582212205c1b9c03eccae6d78e4797f2538be14503b4748b0a9bbe4b3e560a082713aa5564736f6c63430008140033",
  "immutableReferences": {},
  "source": "// SPDX-License-Identifier: MIT\r\npragma solidity ^0.8.20;\r\n\r\nimport \"@openzeppelin/contracts/access/Ownable.sol\";\r\n\r\ncontract ReputationGenome is Ownable {\r\n    struct ReputationParameters {\r\n        uint256 initialReputation;\r\n        uint256 maxReputation;\r\n        uint256 minReputation;\r\n        uint256 positiveActionImpact;\r\n        uint256 negativeActionImpact;\r\n        uint256 decayRate;\r\n        uint256 decayPeriod;\r\n    }\r\n\r\n    ReputationParameters public params;\r\n    mapping(address => uint256) public reputationScores;\r\n    mapping(address => uint256) public lastUpdateTime;\r\n\r\n    event ReputationParametersUpdated(\r\n        uint256 initialReputation,\r\n        uint256 maxReputation,\r\n        uint256 minReputation,\r\n        uint256 positiveActionImpact,\r\n        uint256 negativeActionImpact,\r\n        uint256 decayRate,\r\n        uint256 decayPeriod\r\n    );\r\n    event ReputationUpdated(address indexed user, uint256 newScore);\r\n\r\n    constructor(\r\n        address initialOwner,\r\n        uint256 _initialReputation,\r\n        uint256 _maxReputation,\r\n        uint256 _minReputation,\r\n        uint256 _positiveActionImpact,\r\n        uint256 _negativeActionImpact,\r\n        uint256 _decayRate,\r\n        uint256 _decayPeriod\r\n    ) {\r\n        _transferOwnership(initialOwner);\r\n        require(_minReputation < _initialReputation && _initialReputation < _maxReputation, \"Invalid reputation range\");\r\n        params = ReputationParameters(\r\n            _initialReputation,\r\n            _maxReputation,\r\n            _minReputation,\r\n            _positiveActionImpact,\r\n            _negativeActionImpact,\r\n            _decayRate,\r\n            _decayPeriod\r\n        );\r\n    }\r\n\r\n    function updateReputationParameters(\r\n        uint256 _initialReputation,\r\n        uint256 _maxReputation,\r\n        uint256 _minReputation,\r\n        uint256 _positiveActionImpact,\r\n        uint256 _negativeActionImpact,\r\n        uint256 _decayRate,\r\n        uint256 _decayPeriod\r\n    ) external onlyOwner {\r\n        require(_minReputation < _initialReputation && _initialReputation < _maxReputation, \"Invalid reputation range\");\r\n        params = ReputationParameters(\r\n            _initialReputation,\r\n            _maxReputation,\r\n            _minReputation,\r\n            _positiveActionImpact,\r\n            _negativeActionImpact,\r\n            _decayRate,\r\n            _decayPeriod\r\n        );\r\n        emit ReputationParametersUpdated(\r\n            _initialReputation,\r\n            _maxReputation,\r\n            _minReputation,\r\n            _positiveActionImpact,\r\n            _negativeActionImpact,\r\n            _decayRate,\r\n            _decayPeriod\r\n        );\r\n    }\r\n\r\n    function getReputationParameters() external view returns (ReputationParameters memory) {\r\n        return params;\r\n    }\r\n\r\n    function getReputation(address user) public view returns (uint256) {\r\n        if (reputationScores[user] == 0) {\r\n            return params.initialReputation;\r\n        }\r\n        uint256 timePassed = block.timestamp - lastUpdateTime[user];\r\n        uint256 decayPeriods = timePassed / params.decayPeriod;\r\n        uint256 decayedScore = reputationScores[user] - (decayPeriods * params.decayRate);\r\n        return decayedScore > params.minReputation ? decayedScore : params.minReputation;\r\n    }\r\n\r\n    function updateReputation(address user, bool isPositive) external onlyOwner {\r\n        uint256 currentReputation = getReputation(user);\r\n        uint256 newReputation;\r\n        if (isPositive) {\r\n            newReputation = currentReputation + params.positiveActionImpact;\r\n            newReputation = newReputation > params.maxReputation ? params.maxReputation : newReputation;\r\n        } else {\r\n            newReputation = currentReputation > params.negativeActionImpact ? \r\n                currentReputation - params.negativeActionImpact : params.minReputation;\r\n        }\r\n        reputationScores[user] = newReputation;\r\n        lastUpdateTime[user] = block.timestamp;\r\n        emit ReputationUpdated(user, newReputation);\r\n    }\r\n\r\n    function initializeReputation(address user) external onlyOwner {\r\n        require(reputationScores[user] == 0, \"Reputation already initialized\");\r\n        reputationScores[user] = params.initialReputation;\r\n        lastUpdateTime[user] = block.timestamp;\r\n        emit ReputationUpdated(user, params.initialReputation);\r\n    }\r\n\r\n    function isReputableUser(address user, uint256 threshold) external view returns (bool) {\r\n        return getReputation(user) >= threshold;\r\n    }\r\n}",
  "sourcePath": "E:\\AI Zona\\AI Apps\\aizona\\aizona\\smart-contracts\\contracts\\ReputationGenome.sol",
  "compiler": {
    "name": "solc",
    "version": "0.8.20+commit.a1b79de6.Emscripten.clang"
  },
  "schemaVersion": "3.4.16",
  "updatedAt": "2024-08-20T19:44:33.051Z",
  "devdoc": {
    "kind": "dev",
    "methods": {
      "owner()": {
        "details": "Returns the address of the current owner."
      },
      "renounceOwnership()": {
        "details": "Leaves the contract without owner. It will not be possible to call `onlyOwner` functions. Can only be called by the current owner. NOTE: Renouncing ownership will leave the contract without an owner, thereby disabling any functionality that is only available to the owner."
      },
      "transferOwnership(address)": {
        "details": "Transfers ownership of the contract to a new account (`newOwner`). Can only be called by the current owner."
      }
    },
    "version": 1
  },
  "userdoc": {
    "kind": "user",
    "methods": {},
    "version": 1
  }
}