{
  "contractName": "SecurityGenome",
  "abi": [
    {
      "inputs": [
        {
          "internalType": "uint256",
          "name": "_maxTransactionAmount",
          "type": "uint256"
        },
        {
          "internalType": "uint256",
          "name": "_dailyTransactionLimit",
          "type": "uint256"
        },
        {
          "internalType": "uint256",
          "name": "_suspiciousActivityThreshold",
          "type": "uint256"
        },
        {
          "internalType": "uint256",
          "name": "_cooldownPeriod",
          "type": "uint256"
        },
        {
          "internalType": "bool",
          "name": "_multisigRequired",
          "type": "bool"
        },
        {
          "internalType": "uint256",
          "name": "_multisigThreshold",
          "type": "uint256"
        },
        {
          "internalType": "address",
          "name": "initialOwner",
          "type": "address"
        }
      ],
      "stateMutability": "nonpayable",
      "type": "constructor"
    },
    {
      "anonymous": false,
      "inputs": [
        {
          "indexed": true,
          "internalType": "address",
          "name": "blacklistedAddress",
          "type": "address"
        }
      ],
      "name": "AddressBlacklisted",
      "type": "event"
    },
    {
      "anonymous": false,
      "inputs": [
        {
          "indexed": true,
          "internalType": "address",
          "name": "whitelistedAddress",
          "type": "address"
        }
      ],
      "name": "AddressWhitelisted",
      "type": "event"
    },
    {
      "anonymous": false,
      "inputs": [
        {
          "indexed": true,
          "internalType": "address",
          "name": "previousOwner",
          "type": "address"
        },
        {
          "indexed": true,
          "internalType": "address",
          "name": "newOwner",
          "type": "address"
        }
      ],
      "name": "OwnershipTransferred",
      "type": "event"
    },
    {
      "anonymous": false,
      "inputs": [
        {
          "indexed": false,
          "internalType": "address",
          "name": "account",
          "type": "address"
        }
      ],
      "name": "Paused",
      "type": "event"
    },
    {
      "anonymous": false,
      "inputs": [
        {
          "indexed": true,
          "internalType": "address",
          "name": "newAdmin",
          "type": "address"
        }
      ],
      "name": "SecurityAdminAdded",
      "type": "event"
    },
    {
      "anonymous": false,
      "inputs": [
        {
          "indexed": true,
          "internalType": "address",
          "name": "removedAdmin",
          "type": "address"
        }
      ],
      "name": "SecurityAdminRemoved",
      "type": "event"
    },
    {
      "anonymous": false,
      "inputs": [
        {
          "indexed": false,
          "internalType": "uint256",
          "name": "maxTransactionAmount",
          "type": "uint256"
        },
        {
          "indexed": false,
          "internalType": "uint256",
          "name": "dailyTransactionLimit",
          "type": "uint256"
        },
        {
          "indexed": false,
          "internalType": "uint256",
          "name": "suspiciousActivityThreshold",
          "type": "uint256"
        },
        {
          "indexed": false,
          "internalType": "uint256",
          "name": "cooldownPeriod",
          "type": "uint256"
        },
        {
          "indexed": false,
          "internalType": "bool",
          "name": "multisigRequired",
          "type": "bool"
        },
        {
          "indexed": false,
          "internalType": "uint256",
          "name": "multisigThreshold",
          "type": "uint256"
        }
      ],
      "name": "SecurityParametersUpdated",
      "type": "event"
    },
    {
      "anonymous": false,
      "inputs": [
        {
          "indexed": false,
          "internalType": "address",
          "name": "account",
          "type": "address"
        }
      ],
      "name": "Unpaused",
      "type": "event"
    },
    {
      "inputs": [
        {
          "internalType": "address",
          "name": "",
          "type": "address"
        }
      ],
      "name": "blacklistedAddresses",
      "outputs": [
        {
          "internalType": "bool",
          "name": "",
          "type": "bool"
        }
      ],
      "stateMutability": "view",
      "type": "function"
    },
    {
      "inputs": [
        {
          "internalType": "address",
          "name": "",
          "type": "address"
        }
      ],
      "name": "dailyTransactions",
      "outputs": [
        {
          "internalType": "uint256",
          "name": "",
          "type": "uint256"
        }
      ],
      "stateMutability": "view",
      "type": "function"
    },
    {
      "inputs": [
        {
          "internalType": "address",
          "name": "",
          "type": "address"
        }
      ],
      "name": "lastTransactionTime",
      "outputs": [
        {
          "internalType": "uint256",
          "name": "",
          "type": "uint256"
        }
      ],
      "stateMutability": "view",
      "type": "function"
    },
    {
      "inputs": [],
      "name": "owner",
      "outputs": [
        {
          "internalType": "address",
          "name": "",
          "type": "address"
        }
      ],
      "stateMutability": "view",
      "type": "function"
    },
    {
      "inputs": [],
      "name": "params",
      "outputs": [
        {
          "internalType": "uint256",
          "name": "maxTransactionAmount",
          "type": "uint256"
        },
        {
          "internalType": "uint256",
          "name": "dailyTransactionLimit",
          "type": "uint256"
        },
        {
          "internalType": "uint256",
          "name": "suspiciousActivityThreshold",
          "type": "uint256"
        },
        {
          "internalType": "uint256",
          "name": "cooldownPeriod",
          "type": "uint256"
        },
        {
          "internalType": "bool",
          "name": "multisigRequired",
          "type": "bool"
        },
        {
          "internalType": "uint256",
          "name": "multisigThreshold",
          "type": "uint256"
        }
      ],
      "stateMutability": "view",
      "type": "function"
    },
    {
      "inputs": [],
      "name": "paused",
      "outputs": [
        {
          "internalType": "bool",
          "name": "",
          "type": "bool"
        }
      ],
      "stateMutability": "view",
      "type": "function"
    },
    {
      "inputs": [],
      "name": "renounceOwnership",
      "outputs": [],
      "stateMutability": "nonpayable",
      "type": "function"
    },
    {
      "inputs": [
        {
          "internalType": "uint256",
          "name": "",
          "type": "uint256"
        }
      ],
      "name": "securityAdmins",
      "outputs": [
        {
          "internalType": "address",
          "name": "",
          "type": "address"
        }
      ],
      "stateMutability": "view",
      "type": "function"
    },
    {
      "inputs": [
        {
          "internalType": "address",
          "name": "newOwner",
          "type": "address"
        }
      ],
      "name": "transferOwnership",
      "outputs": [],
      "stateMutability": "nonpayable",
      "type": "function"
    },
    {
      "inputs": [
        {
          "internalType": "uint256",
          "name": "_maxTransactionAmount",
          "type": "uint256"
        },
        {
          "internalType": "uint256",
          "name": "_dailyTransactionLimit",
          "type": "uint256"
        },
        {
          "internalType": "uint256",
          "name": "_suspiciousActivityThreshold",
          "type": "uint256"
        },
        {
          "internalType": "uint256",
          "name": "_cooldownPeriod",
          "type": "uint256"
        },
        {
          "internalType": "bool",
          "name": "_multisigRequired",
          "type": "bool"
        },
        {
          "internalType": "uint256",
          "name": "_multisigThreshold",
          "type": "uint256"
        }
      ],
      "name": "updateSecurityParameters",
      "outputs": [],
      "stateMutability": "nonpayable",
      "type": "function"
    },
    {
      "inputs": [],
      "name": "getSecurityParameters",
      "outputs": [
        {
          "components": [
            {
              "internalType": "uint256",
              "name": "maxTransactionAmount",
              "type": "uint256"
            },
            {
              "internalType": "uint256",
              "name": "dailyTransactionLimit",
              "type": "uint256"
            },
            {
              "internalType": "uint256",
              "name": "suspiciousActivityThreshold",
              "type": "uint256"
            },
            {
              "internalType": "uint256",
              "name": "cooldownPeriod",
              "type": "uint256"
            },
            {
              "internalType": "bool",
              "name": "multisigRequired",
              "type": "bool"
            },
            {
              "internalType": "uint256",
              "name": "multisigThreshold",
              "type": "uint256"
            }
          ],
          "internalType": "struct SecurityGenome.SecurityParameters",
          "name": "",
          "type": "tuple"
        }
      ],
      "stateMutability": "view",
      "type": "function"
    },
    {
      "inputs": [
        {
          "internalType": "address",
          "name": "user",
          "type": "address"
        },
        {
          "internalType": "uint256",
          "name": "amount",
          "type": "uint256"
        }
      ],
      "name": "isTransactionAllowed",
      "outputs": [
        {
          "internalType": "bool",
          "name": "",
          "type": "bool"
        }
      ],
      "stateMutability": "view",
      "type": "function"
    },
    {
      "inputs": [
        {
          "internalType": "address",
          "name": "user",
          "type": "address"
        },
        {
          "internalType": "uint256",
          "name": "amount",
          "type": "uint256"
        }
      ],
      "name": "recordTransaction",
      "outputs": [],
      "stateMutability": "nonpayable",
      "type": "function"
    },
    {
      "inputs": [
        {
          "internalType": "address",
          "name": "user",
          "type": "address"
        }
      ],
      "name": "blacklistAddress",
      "outputs": [],
      "stateMutability": "nonpayable",
      "type": "function"
    },
    {
      "inputs": [
        {
          "internalType": "address",
          "name": "user",
          "type": "address"
        }
      ],
      "name": "whitelistAddress",
      "outputs": [],
      "stateMutability": "nonpayable",
      "type": "function"
    },
    {
      "inputs": [
        {
          "internalType": "address",
          "name": "newAdmin",
          "type": "address"
        }
      ],
      "name": "addSecurityAdmin",
      "outputs": [],
      "stateMutability": "nonpayable",
      "type": "function"
    },
    {
      "inputs": [
        {
          "internalType": "address",
          "name": "admin",
          "type": "address"
        }
      ],
      "name": "removeSecurityAdmin",
      "outputs": [],
      "stateMutability": "nonpayable",
      "type": "function"
    },
    {
      "inputs": [
        {
          "internalType": "address",
          "name": "user",
          "type": "address"
        }
      ],
      "name": "isSecurityAdmin",
      "outputs": [
        {
          "internalType": "bool",
          "name": "",
          "type": "bool"
        }
      ],
      "stateMutability": "view",
      "type": "function"
    },
    {
      "inputs": [],
      "name": "pause",
      "outputs": [],
      "stateMutability": "nonpayable",
      "type": "function"
    },
    {
      "inputs": [],
      "name": "unpause",
      "outputs": [],
      "stateMutability": "nonpayable",
      "type": "function"
    },
    {
      "inputs": [
        {
          "internalType": "address",
          "name": "user",
          "type": "address"
        }
      ],
      "name": "resetDailyLimit",
      "outputs": [],
      "stateMutability": "nonpayable",
      "type": "function"
    }
  ],
  "bytecode": "0x608060405234801561000f575f80fd5b506040516110fb3803806110fb83398101604081905261002e9161013e565b610037336100ef565b5f805460ff60a01b1916905560018055610050816100ef565b506040805160c08101825287815260208101879052908101859052606081018490529115156080830181905260a09092018190526002959095556003939093556004919091556005556006805460ff19169091179055600755600b80546001810182555f919091527f0175b7a638427703f0dbe7bb9bbf987a2551717b34e79f33b5b1008d1fa01db90180546001600160a01b031916331790556101b2565b5f80546001600160a01b038381166001600160a01b0319831681178455604051919092169283917f8be0079c531659141344cd1fd0a4f28419497f9722a3daafe3b4186f6b6457e09190a35050565b5f805f805f805f60e0888a031215610154575f80fd5b875196506020880151955060408801519450606088015193506080880151801515811461017f575f80fd5b60a089015160c08a015191945092506001600160a01b03811681146101a2575f80fd5b8091505092959891949750929550565b610f3c806101bf5f395ff3fe608060405234801561000f575f80fd5b5060043610610132575f3560e01c80638456cb59116100b4578063d08fb6cb11610079578063d08fb6cb146102af578063d5749d42146102c2578063d671312e146102e4578063e75b207314610339578063f2fde38b14610358578063f3290d751461036b575f80fd5b80638456cb59146102215780638da5cb5b14610229578063a089446314610239578063a5778b8e1461024c578063cff0ab961461025f575f80fd5b80635c975abb116100fa5780635c975abb1461018c578063715018a6146101ae5780637450c5a6146101b657806376dabfdb146101c9578063836d8cfc146101f6575f80fd5b806317ca06ab1461013657806326bbe9481461014b57806335262b641461015e5780633f4ba83a146101715780634156658514610179575b5f80fd5b610149610144366004610da1565b61037e565b005b610149610159366004610dc9565b6104ab565b61014961016c366004610dc9565b6104e9565b610149610679565b610149610187366004610dc9565b61068b565b5f54600160a01b900460ff165b60405190151581526020015b60405180910390f35b6101496106f8565b6101996101c4366004610da1565b610709565b6101e86101d7366004610dc9565b60086020525f908152604090205481565b6040519081526020016101a5565b610209610204366004610de9565b6107ba565b6040516001600160a01b0390911681526020016101a5565b6101496107e2565b5f546001600160a01b0316610209565b610149610247366004610dc9565b6107f2565b61014961025a366004610e00565b6108d3565b600254600354600454600554600654600754610280959493929160ff169086565b6040805196875260208701959095529385019290925260608401521515608083015260a082015260c0016101a5565b6101996102bd366004610dc9565b61098e565b6101996102d0366004610dc9565b600a6020525f908152604090205460ff1681565b6102ec6109f4565b6040516101a591905f60c0820190508251825260208301516020830152604083015160408301526060830151606083015260808301511515608083015260a083015160a083015292915050565b6101e8610347366004610dc9565b60096020525f908152604090205481565b610149610366366004610dc9565b610a6b565b610149610379366004610dc9565b610ae4565b610386610b54565b61038e610bad565b610396610bf9565b6103a08282610709565b6103f15760405162461bcd60e51b815260206004820152601760248201527f5472616e73616374696f6e206e6f7420616c6c6f77656400000000000000000060448201526064015b60405180910390fd5b6001600160a01b0382165f90815260086020526040902054610414908290610e69565b6001600160a01b0383165f9081526008602081815260408084209485556009825290922042905560045491529054111561049e576040516001600160a01b038316907fdaf49ab9345b6cb75bcb5a7f726bff9183c34dcf5c098c385730f9fd893765f6905f90a26001600160a01b0382165f908152600a60205260409020805460ff191660011790555b6104a760018055565b5050565b6104b43361098e565b6104d05760405162461bcd60e51b81526004016103e890610e7c565b6001600160a01b03165f90815260086020526040812055565b6104f1610b54565b6104fa8161098e565b6105465760405162461bcd60e51b815260206004820152601f60248201527f41646472657373206973206e6f7420612073656375726974792061646d696e0060448201526064016103e8565b5f5b600b548110156104a757816001600160a01b0316600b828154811061056f5761056f610eb3565b5f918252602090912001546001600160a01b03160361066757600b805461059890600190610ec7565b815481106105a8576105a8610eb3565b5f91825260209091200154600b80546001600160a01b0390921691839081106105d3576105d3610eb3565b905f5260205f20015f6101000a8154816001600160a01b0302191690836001600160a01b03160217905550600b80548061060f5761060f610eda565b5f8281526020812082015f1990810180546001600160a01b03191690559091019091556040516001600160a01b038416917f8c5a575e573f1a06a28c0263263c394673925ac9be9dccc15fb1956a98ab3caa91a25050565b8061067181610eee565b915050610548565b610681610b54565b610689610c52565b565b6106943361098e565b6106b05760405162461bcd60e51b81526004016103e890610e7c565b6001600160a01b0381165f818152600a6020526040808220805460ff19169055517f4f783c179409b4127238bc9c990bc99b9a651666a0d20b51d6c42849eb88466d9190a250565b610700610b54565b6106895f610ca6565b6001600160a01b0382165f908152600a602052604081205460ff161561073057505f6107b4565b60025482111561074157505f6107b4565b6001600160a01b0383165f90815260086020526040812054610764908490610e69565b60035490915081111561077a575f9150506107b4565b6005546001600160a01b0385165f9081526009602052604090205461079f9042610ec7565b10156107ae575f9150506107b4565b60019150505b92915050565b600b81815481106107c9575f80fd5b5f918252602090912001546001600160a01b0316905081565b6107ea610b54565b610689610cf5565b6107fa610b54565b6108038161098e565b1561085c5760405162461bcd60e51b815260206004820152602360248201527f4164647265737320697320616c7265616479206120736563757269747920616460448201526236b4b760e91b60648201526084016103e8565b600b80546001810182555f9182527f0175b7a638427703f0dbe7bb9bbf987a2551717b34e79f33b5b1008d1fa01db90180546001600160a01b0319166001600160a01b03841690811790915560405190917f9a57083c9c8b07bb39dab4e94b2d5bca0769b6febe04e7fc160e60ac16f7300891a250565b6108db610b54565b6040805160c0808201835288825260208083018990528284018890526060808401889052861515608080860182905260a095860188905260028d905560038c905560048b905560058a90556006805460ff191683179055600788905586518d81529384018c90529583018a9052908201889052938101939093529082018390527f4aba7e9136ed52752bf3b712fa25b011e35c2f29d2d141adeecc33dd9aeecd1d910160405180910390a1505050505050565b5f805b600b548110156109ec57826001600160a01b0316600b82815481106109b8576109b8610eb3565b5f918252602090912001546001600160a01b0316036109da5750600192915050565b806109e481610eee565b915050610991565b505f92915050565b610a296040518060c001604052805f81526020015f81526020015f81526020015f81526020015f151581526020015f81525090565b506040805160c0810182526002548152600354602082015260045491810191909152600554606082015260065460ff161515608082015260075460a082015290565b610a73610b54565b6001600160a01b038116610ad85760405162461bcd60e51b815260206004820152602660248201527f4f776e61626c653a206e6577206f776e657220697320746865207a65726f206160448201526564647265737360d01b60648201526084016103e8565b610ae181610ca6565b50565b610aed3361098e565b610b095760405162461bcd60e51b81526004016103e890610e7c565b6001600160a01b0381165f818152600a6020526040808220805460ff19166001179055517fdaf49ab9345b6cb75bcb5a7f726bff9183c34dcf5c098c385730f9fd893765f69190a250565b5f546001600160a01b031633146106895760405162461bcd60e51b815260206004820181905260248201527f4f776e61626c653a2063616c6c6572206973206e6f7420746865206f776e657260448201526064016103e8565b5f54600160a01b900460ff16156106895760405162461bcd60e51b815260206004820152601060248201526f14185d5cd8589b194e881c185d5cd95960821b60448201526064016103e8565b600260015403610c4b5760405162461bcd60e51b815260206004820152601f60248201527f5265656e7472616e637947756172643a207265656e7472616e742063616c6c0060448201526064016103e8565b6002600155565b610c5a610d37565b5f805460ff60a01b191690557f5db9ee0a495bf2e6ff9c91a7834c1ba4fdd244a5e8aa4e537bd38aeae4b073aa335b6040516001600160a01b03909116815260200160405180910390a1565b5f80546001600160a01b038381166001600160a01b0319831681178455604051919092169283917f8be0079c531659141344cd1fd0a4f28419497f9722a3daafe3b4186f6b6457e09190a35050565b610cfd610bad565b5f805460ff60a01b1916600160a01b1790557f62e78cea01bee320cd4e420270b5ea74000d11b0c9f74754ebdbfc544b05a258610c893390565b5f54600160a01b900460ff166106895760405162461bcd60e51b815260206004820152601460248201527314185d5cd8589b194e881b9bdd081c185d5cd95960621b60448201526064016103e8565b80356001600160a01b0381168114610d9c575f80fd5b919050565b5f8060408385031215610db2575f80fd5b610dbb83610d86565b946020939093013593505050565b5f60208284031215610dd9575f80fd5b610de282610d86565b9392505050565b5f60208284031215610df9575f80fd5b5035919050565b5f805f805f8060c08789031215610e15575f80fd5b8635955060208701359450604087013593506060870135925060808701358015158114610e40575f80fd5b8092505060a087013590509295509295509295565b634e487b7160e01b5f52601160045260245ffd5b808201808211156107b4576107b4610e55565b6020808252601e908201527f43616c6c6572206973206e6f7420612073656375726974792061646d696e0000604082015260600190565b634e487b7160e01b5f52603260045260245ffd5b818103818111156107b4576107b4610e55565b634e487b7160e01b5f52603160045260245ffd5b5f60018201610eff57610eff610e55565b506001019056fea2646970667358221220752851ea93ecada55961b2d067e0287af0a812483f897cf0f0df1902db65e73f64736f6c63430008140033",
  "immutableReferences": {},
  "source": "// SPDX-License-Identifier: MIT\r\npragma solidity ^0.8.20;\r\n\r\nimport \"@openzeppelin/contracts/access/Ownable.sol\";\r\nimport \"@openzeppelin/contracts/security/Pausable.sol\";\r\nimport \"@openzeppelin/contracts/security/ReentrancyGuard.sol\";\r\n\r\ncontract SecurityGenome is Ownable, Pausable, ReentrancyGuard {\r\n    struct SecurityParameters {\r\n        uint256 maxTransactionAmount;\r\n        uint256 dailyTransactionLimit;\r\n        uint256 suspiciousActivityThreshold;\r\n        uint256 cooldownPeriod;\r\n        bool multisigRequired;\r\n        uint256 multisigThreshold;\r\n    }\r\n\r\n    SecurityParameters public params;\r\n    mapping(address => uint256) public dailyTransactions;\r\n    mapping(address => uint256) public lastTransactionTime;\r\n    mapping(address => bool) public blacklistedAddresses;\r\n    address[] public securityAdmins;\r\n\r\n    event SecurityParametersUpdated(\r\n        uint256 maxTransactionAmount,\r\n        uint256 dailyTransactionLimit,\r\n        uint256 suspiciousActivityThreshold,\r\n        uint256 cooldownPeriod,\r\n        bool multisigRequired,\r\n        uint256 multisigThreshold\r\n    );\r\n    event AddressBlacklisted(address indexed blacklistedAddress);\r\n    event AddressWhitelisted(address indexed whitelistedAddress);\r\n    event SecurityAdminAdded(address indexed newAdmin);\r\n    event SecurityAdminRemoved(address indexed removedAdmin);\r\n\r\n    modifier onlySecurityAdmin() {\r\n        require(isSecurityAdmin(msg.sender), \"Caller is not a security admin\");\r\n        _;\r\n    }\r\n\r\n    constructor(\r\n        uint256 _maxTransactionAmount,\r\n        uint256 _dailyTransactionLimit,\r\n        uint256 _suspiciousActivityThreshold,\r\n        uint256 _cooldownPeriod,\r\n        bool _multisigRequired,\r\n        uint256 _multisigThreshold,\r\n        address initialOwner\r\n    ) {\r\n        _transferOwnership(initialOwner);\r\n        params = SecurityParameters(\r\n            _maxTransactionAmount,\r\n            _dailyTransactionLimit,\r\n            _suspiciousActivityThreshold,\r\n            _cooldownPeriod,\r\n            _multisigRequired,\r\n            _multisigThreshold\r\n        );\r\n        securityAdmins.push(msg.sender);\r\n    }\r\n\r\n    function updateSecurityParameters(\r\n        uint256 _maxTransactionAmount,\r\n        uint256 _dailyTransactionLimit,\r\n        uint256 _suspiciousActivityThreshold,\r\n        uint256 _cooldownPeriod,\r\n        bool _multisigRequired,\r\n        uint256 _multisigThreshold\r\n    ) external onlyOwner {\r\n        params = SecurityParameters(\r\n            _maxTransactionAmount,\r\n            _dailyTransactionLimit,\r\n            _suspiciousActivityThreshold,\r\n            _cooldownPeriod,\r\n            _multisigRequired,\r\n            _multisigThreshold\r\n        );\r\n        emit SecurityParametersUpdated(\r\n            _maxTransactionAmount,\r\n            _dailyTransactionLimit,\r\n            _suspiciousActivityThreshold,\r\n            _cooldownPeriod,\r\n            _multisigRequired,\r\n            _multisigThreshold\r\n        );\r\n    }\r\n\r\n    function getSecurityParameters() external view returns (SecurityParameters memory) {\r\n        return params;\r\n    }\r\n\r\n    function isTransactionAllowed(address user, uint256 amount) public view returns (bool) {\r\n        if (blacklistedAddresses[user]) {\r\n            return false;\r\n        }\r\n        if (amount > params.maxTransactionAmount) {\r\n            return false;\r\n        }\r\n        uint256 userDailyTotal = dailyTransactions[user] + amount;\r\n        if (userDailyTotal > params.dailyTransactionLimit) {\r\n            return false;\r\n        }\r\n        if (block.timestamp - lastTransactionTime[user] < params.cooldownPeriod) {\r\n            return false;\r\n        }\r\n        return true;\r\n    }\r\n\r\n    function recordTransaction(address user, uint256 amount) external onlyOwner whenNotPaused nonReentrant {\r\n        require(isTransactionAllowed(user, amount), \"Transaction not allowed\");\r\n        dailyTransactions[user] = dailyTransactions[user] + amount;\r\n        lastTransactionTime[user] = block.timestamp;\r\n        if (dailyTransactions[user] > params.suspiciousActivityThreshold) {\r\n            emit AddressBlacklisted(user);\r\n            blacklistedAddresses[user] = true;\r\n        }\r\n    }\r\n\r\n    function blacklistAddress(address user) external onlySecurityAdmin {\r\n        blacklistedAddresses[user] = true;\r\n        emit AddressBlacklisted(user);\r\n    }\r\n\r\n    function whitelistAddress(address user) external onlySecurityAdmin {\r\n        blacklistedAddresses[user] = false;\r\n        emit AddressWhitelisted(user);\r\n    }\r\n\r\n    function addSecurityAdmin(address newAdmin) external onlyOwner {\r\n        require(!isSecurityAdmin(newAdmin), \"Address is already a security admin\");\r\n        securityAdmins.push(newAdmin);\r\n        emit SecurityAdminAdded(newAdmin);\r\n    }\r\n\r\n    function removeSecurityAdmin(address admin) external onlyOwner {\r\n        require(isSecurityAdmin(admin), \"Address is not a security admin\");\r\n        for (uint256 i = 0; i < securityAdmins.length; i++) {\r\n            if (securityAdmins[i] == admin) {\r\n                securityAdmins[i] = securityAdmins[securityAdmins.length - 1];\r\n                securityAdmins.pop();\r\n                emit SecurityAdminRemoved(admin);\r\n                break;\r\n            }\r\n        }\r\n    }\r\n\r\n    function isSecurityAdmin(address user) public view returns (bool) {\r\n        for (uint256 i = 0; i < securityAdmins.length; i++) {\r\n            if (securityAdmins[i] == user) {\r\n                return true;\r\n            }\r\n        }\r\n        return false;\r\n    }\r\n\r\n    function pause() external onlyOwner {\r\n        _pause();\r\n    }\r\n\r\n    function unpause() external onlyOwner {\r\n        _unpause();\r\n    }\r\n\r\n    function resetDailyLimit(address user) external onlySecurityAdmin {\r\n        dailyTransactions[user] = 0;\r\n    }\r\n}",
  "sourcePath": "E:\\AI Zona\\AI Apps\\aizona\\aizona\\smart-contracts\\contracts\\SecurityGenome.sol",
  "compiler": {
    "name": "solc",
    "version": "0.8.20+commit.a1b79de6.Emscripten.clang"
  },
  "schemaVersion": "3.4.16",
  "updatedAt": "2024-08-20T19:44:33.055Z",
  "devdoc": {
    "events": {
      "Paused(address)": {
        "details": "Emitted when the pause is triggered by `account`."
      },
      "Unpaused(address)": {
        "details": "Emitted when the pause is lifted by `account`."
      }
    },
    "kind": "dev",
    "methods": {
      "owner()": {
        "details": "Returns the address of the current owner."
      },
      "paused()": {
        "details": "Returns true if the contract is paused, and false otherwise."
      },
      "renounceOwnership()": {
        "details": "Leaves the contract without owner. It will not be possible to call `onlyOwner` functions. Can only be called by the current owner. NOTE: Renouncing ownership will leave the contract without an owner, thereby disabling any functionality that is only available to the owner."
      },
      "transferOwnership(address)": {
        "details": "Transfers ownership of the contract to a new account (`newOwner`). Can only be called by the current owner."
      }
    },
    "version": 1
  },
  "userdoc": {
    "kind": "user",
    "methods": {},
    "version": 1
  }
}