{
  "contractName": "TokenGenome",
  "abi": [
    {
      "inputs": [
        {
          "internalType": "uint256",
          "name": "_totalSupply",
          "type": "uint256"
        },
        {
          "internalType": "uint256",
          "name": "_initialDistribution",
          "type": "uint256"
        },
        {
          "internalType": "uint256",
          "name": "_inflationRate",
          "type": "uint256"
        },
        {
          "internalType": "uint256",
          "name": "_stakingRewards",
          "type": "uint256"
        },
        {
          "internalType": "uint256",
          "name": "_burnMechanism",
          "type": "uint256"
        },
        {
          "internalType": "uint256",
          "name": "_transactionFees",
          "type": "uint256"
        }
      ],
      "stateMutability": "nonpayable",
      "type": "constructor"
    },
    {
      "anonymous": false,
      "inputs": [
        {
          "components": [
            {
              "internalType": "uint256",
              "name": "totalSupply",
              "type": "uint256"
            },
            {
              "internalType": "uint256",
              "name": "initialDistribution",
              "type": "uint256"
            },
            {
              "internalType": "uint256",
              "name": "inflationRate",
              "type": "uint256"
            },
            {
              "internalType": "uint256",
              "name": "stakingRewards",
              "type": "uint256"
            },
            {
              "internalType": "uint256",
              "name": "burnMechanism",
              "type": "uint256"
            },
            {
              "internalType": "uint256",
              "name": "transactionFees",
              "type": "uint256"
            }
          ],
          "indexed": false,
          "internalType": "struct TokenGenome.TokenAttributes",
          "name": "newAttributes",
          "type": "tuple"
        }
      ],
      "name": "AttributesUpdated",
      "type": "event"
    },
    {
      "inputs": [],
      "name": "attributes",
      "outputs": [
        {
          "internalType": "uint256",
          "name": "totalSupply",
          "type": "uint256"
        },
        {
          "internalType": "uint256",
          "name": "initialDistribution",
          "type": "uint256"
        },
        {
          "internalType": "uint256",
          "name": "inflationRate",
          "type": "uint256"
        },
        {
          "internalType": "uint256",
          "name": "stakingRewards",
          "type": "uint256"
        },
        {
          "internalType": "uint256",
          "name": "burnMechanism",
          "type": "uint256"
        },
        {
          "internalType": "uint256",
          "name": "transactionFees",
          "type": "uint256"
        }
      ],
      "stateMutability": "view",
      "type": "function"
    },
    {
      "inputs": [],
      "name": "owner",
      "outputs": [
        {
          "internalType": "address",
          "name": "",
          "type": "address"
        }
      ],
      "stateMutability": "view",
      "type": "function"
    },
    {
      "inputs": [
        {
          "internalType": "uint256",
          "name": "_totalSupply",
          "type": "uint256"
        },
        {
          "internalType": "uint256",
          "name": "_initialDistribution",
          "type": "uint256"
        },
        {
          "internalType": "uint256",
          "name": "_inflationRate",
          "type": "uint256"
        },
        {
          "internalType": "uint256",
          "name": "_stakingRewards",
          "type": "uint256"
        },
        {
          "internalType": "uint256",
          "name": "_burnMechanism",
          "type": "uint256"
        },
        {
          "internalType": "uint256",
          "name": "_transactionFees",
          "type": "uint256"
        }
      ],
      "name": "updateAttributes",
      "outputs": [],
      "stateMutability": "nonpayable",
      "type": "function"
    },
    {
      "inputs": [],
      "name": "getAttributes",
      "outputs": [
        {
          "components": [
            {
              "internalType": "uint256",
              "name": "totalSupply",
              "type": "uint256"
            },
            {
              "internalType": "uint256",
              "name": "initialDistribution",
              "type": "uint256"
            },
            {
              "internalType": "uint256",
              "name": "inflationRate",
              "type": "uint256"
            },
            {
              "internalType": "uint256",
              "name": "stakingRewards",
              "type": "uint256"
            },
            {
              "internalType": "uint256",
              "name": "burnMechanism",
              "type": "uint256"
            },
            {
              "internalType": "uint256",
              "name": "transactionFees",
              "type": "uint256"
            }
          ],
          "internalType": "struct TokenGenome.TokenAttributes",
          "name": "",
          "type": "tuple"
        }
      ],
      "stateMutability": "view",
      "type": "function"
    },
    {
      "inputs": [
        {
          "internalType": "address",
          "name": "newOwner",
          "type": "address"
        }
      ],
      "name": "transferOwnership",
      "outputs": [],
      "stateMutability": "nonpayable",
      "type": "function"
    }
  ],
  "bytecode": "0x608060405234801561000f575f80fd5b5060405161050f38038061050f83398101604081905261002e9161008d565b600680546001600160a01b031916331790556040805160c08101825287815260208101879052908101859052606081018490526080810183905260a0018190525f959095556001939093556002919091556003556004556005556100d3565b5f805f805f8060c087890312156100a2575f80fd5b865195506020870151945060408701519350606087015192506080870151915060a087015190509295509295509295565b61042f806100e05f395ff3fe608060405234801561000f575f80fd5b5060043610610055575f3560e01c8063152583de14610059578063623cd965146100b55780638da5cb5b146100ca57806393e1ea41146100f5578063f2fde38b1461013f575b5f80fd5b610061610152565b6040516100ac91905f60c082019050825182526020830151602083015260408301516040830152606083015160608301526080830151608083015260a083015160a083015292915050565b60405180910390f35b6100c86100c3366004610348565b6101c1565b005b6006546100dd906001600160a01b031681565b6040516001600160a01b0390911681526020016100ac565b5f5460015460025460035460045460055461011295949392919086565b604080519687526020870195909552938501929092526060840152608083015260a082015260c0016100ac565b6100c861014d366004610387565b61029a565b6101856040518060c001604052805f81526020015f81526020015f81526020015f81526020015f81526020015f81525090565b506040805160c0810182525f5481526001546020820152600254918101919091526003546060820152600454608082015260055460a082015290565b6006546001600160a01b031633146101f45760405162461bcd60e51b81526004016101eb906103b4565b60405180910390fd5b6040805160c0808201835288825260208083018990528284018890526060808401889052608080850188905260a09485018790525f8c905560018b905560028a905560038990556004889055600587905585518c81529283018b905294820189905281018790529283018590529082018390527f66f53f52892bd39e93257ed0a2f3ba421491af10ce51c6e96f93e2a037b52662910160405180910390a1505050505050565b6006546001600160a01b031633146102c45760405162461bcd60e51b81526004016101eb906103b4565b6001600160a01b0381166103265760405162461bcd60e51b8152602060048201526024808201527f4e6577206f776e65722063616e6e6f7420626520746865207a65726f206164646044820152637265737360e01b60648201526084016101eb565b600680546001600160a01b0319166001600160a01b0392909216919091179055565b5f805f805f8060c0878903121561035d575f80fd5b505084359660208601359650604086013595606081013595506080810135945060a0013592509050565b5f60208284031215610397575f80fd5b81356001600160a01b03811681146103ad575f80fd5b9392505050565b60208082526025908201527f4f6e6c7920746865206f776e65722063616e2063616c6c20746869732066756e60408201526431ba34b7b760d91b60608201526080019056fea2646970667358221220acb5b62339579668ccc1e48111d2a91373bfac6c58bcab1d408ecfa4c485a05864736f6c63430008140033",
  "immutableReferences": {},
  "source": "// SPDX-License-Identifier: MIT\r\npragma solidity ^0.8.20;\r\n\r\ncontract TokenGenome {\r\n    struct TokenAttributes {\r\n        uint256 totalSupply;\r\n        uint256 initialDistribution;\r\n        uint256 inflationRate;\r\n        uint256 stakingRewards;\r\n        uint256 burnMechanism;\r\n        uint256 transactionFees;\r\n    }\r\n\r\n    TokenAttributes public attributes;\r\n    address public owner;\r\n\r\n    event AttributesUpdated(TokenAttributes newAttributes);\r\n\r\n    constructor(\r\n        uint256 _totalSupply,\r\n        uint256 _initialDistribution,\r\n        uint256 _inflationRate,\r\n        uint256 _stakingRewards,\r\n        uint256 _burnMechanism,\r\n        uint256 _transactionFees\r\n    ) {\r\n        owner = msg.sender;\r\n        attributes = TokenAttributes(\r\n            _totalSupply,\r\n            _initialDistribution,\r\n            _inflationRate,\r\n            _stakingRewards,\r\n            _burnMechanism,\r\n            _transactionFees\r\n        );\r\n    }\r\n\r\n    modifier onlyOwner() {\r\n        require(msg.sender == owner, \"Only the owner can call this function\");\r\n        _;\r\n    }\r\n\r\n    function updateAttributes(\r\n        uint256 _totalSupply,\r\n        uint256 _initialDistribution,\r\n        uint256 _inflationRate,\r\n        uint256 _stakingRewards,\r\n        uint256 _burnMechanism,\r\n        uint256 _transactionFees\r\n    ) external onlyOwner {\r\n        attributes = TokenAttributes(\r\n            _totalSupply,\r\n            _initialDistribution,\r\n            _inflationRate,\r\n            _stakingRewards,\r\n            _burnMechanism,\r\n            _transactionFees\r\n        );\r\n        emit AttributesUpdated(attributes);\r\n    }\r\n\r\n    function getAttributes() external view returns (TokenAttributes memory) {\r\n        return attributes;\r\n    }\r\n\r\n    function transferOwnership(address newOwner) external onlyOwner {\r\n        require(newOwner != address(0), \"New owner cannot be the zero address\");\r\n        owner = newOwner;\r\n    }\r\n}",
  "sourcePath": "E:\\AI Zona\\AI Apps\\aizona\\aizona\\smart-contracts\\contracts\\TokenGenome.sol",
  "compiler": {
    "name": "solc",
    "version": "0.8.20+commit.a1b79de6.Emscripten.clang"
  },
  "schemaVersion": "3.4.16",
  "updatedAt": "2024-08-20T19:44:33.059Z",
  "devdoc": {
    "kind": "dev",
    "methods": {},
    "version": 1
  },
  "userdoc": {
    "kind": "user",
    "methods": {},
    "version": 1
  }
}